{"abi":[{"type":"constructor","inputs":[{"name":"initialOwner","type":"address","internalType":"address"}],"stateMutability":"nonpayable"},{"type":"function","name":"approvePartnerRegistration","inputs":[{"name":"partner","type":"address","internalType":"address"}],"outputs":[],"stateMutability":"nonpayable"},{"type":"function","name":"getPartnerSettings","inputs":[{"name":"partner","type":"address","internalType":"address"}],"outputs":[{"name":"","type":"tuple","internalType":"struct PartnerSettings","components":[{"name":"soulboundTokenName","type":"string","internalType":"string"},{"name":"soulboundTokenSymbol","type":"string","internalType":"string"},{"name":"soulboundTokenAddress","type":"address","internalType":"address"},{"name":"logoUrl","type":"string","internalType":"string"},{"name":"logoSVG","type":"string","internalType":"string"}]}],"stateMutability":"view"},{"type":"function","name":"isPartner","inputs":[{"name":"partner","type":"address","internalType":"address"}],"outputs":[{"name":"","type":"bool","internalType":"bool"}],"stateMutability":"view"},{"type":"function","name":"isRevokedPartner","inputs":[{"name":"partner","type":"address","internalType":"address"}],"outputs":[{"name":"","type":"bool","internalType":"bool"}],"stateMutability":"view"},{"type":"function","name":"isUser","inputs":[{"name":"user","type":"address","internalType":"address"}],"outputs":[{"name":"","type":"bool","internalType":"bool"}],"stateMutability":"view"},{"type":"function","name":"owner","inputs":[],"outputs":[{"name":"","type":"address","internalType":"address"}],"stateMutability":"view"},{"type":"function","name":"partnerRegistrationFee","inputs":[],"outputs":[{"name":"","type":"uint256","internalType":"uint256"}],"stateMutability":"view"},{"type":"function","name":"partnerRegistrationRequestExists","inputs":[{"name":"partner","type":"address","internalType":"address"}],"outputs":[{"name":"","type":"bool","internalType":"bool"}],"stateMutability":"view"},{"type":"function","name":"registerAsUser","inputs":[],"outputs":[],"stateMutability":"nonpayable"},{"type":"function","name":"renounceOwnership","inputs":[],"outputs":[],"stateMutability":"nonpayable"},{"type":"function","name":"requestRegistrationAsPartner","inputs":[{"name":"nftName","type":"string","internalType":"string"},{"name":"nftSymbol","type":"string","internalType":"string"}],"outputs":[],"stateMutability":"payable"},{"type":"function","name":"revokePartnerRegistration","inputs":[{"name":"partner","type":"address","internalType":"address"}],"outputs":[],"stateMutability":"nonpayable"},{"type":"function","name":"setChallengeRewardStrategy","inputs":[{"name":"challengeRewardStrategy_","type":"address","internalType":"contract IChallengeRewardStrategy"}],"outputs":[],"stateMutability":"nonpayable"},{"type":"function","name":"setPartnerRegistrationFee","inputs":[{"name":"fee","type":"uint256","internalType":"uint256"}],"outputs":[],"stateMutability":"nonpayable"},{"type":"function","name":"transferOwnership","inputs":[{"name":"newOwner","type":"address","internalType":"address"}],"outputs":[],"stateMutability":"nonpayable"},{"type":"function","name":"withdraw","inputs":[],"outputs":[],"stateMutability":"nonpayable"},{"type":"event","name":"OwnershipTransferred","inputs":[{"name":"previousOwner","type":"address","indexed":true,"internalType":"address"},{"name":"newOwner","type":"address","indexed":true,"internalType":"address"}],"anonymous":false},{"type":"error","name":"ExistingOrRevokedPartnerWithThisAddress","inputs":[{"name":"user","type":"address","internalType":"address"}]},{"type":"error","name":"ExistingUserWithThisAddress","inputs":[{"name":"user","type":"address","internalType":"address"}]},{"type":"error","name":"InsufficientRegistrationFee","inputs":[{"name":"provided","type":"uint256","internalType":"uint256"},{"name":"required","type":"uint256","internalType":"uint256"}]},{"type":"error","name":"OwnableInvalidOwner","inputs":[{"name":"owner","type":"address","internalType":"address"}]},{"type":"error","name":"OwnableUnauthorizedAccount","inputs":[{"name":"account","type":"address","internalType":"address"}]},{"type":"error","name":"OwnerAddressForbidden","inputs":[{"name":"account","type":"address","internalType":"address"}]},{"type":"error","name":"PartnerAlreadyRegistered","inputs":[{"name":"partner","type":"address","internalType":"address"}]},{"type":"error","name":"PartnerIsRevoked","inputs":[{"name":"partner","type":"address","internalType":"address"}]},{"type":"error","name":"PartnerNotRegistered","inputs":[{"name":"partner","type":"address","internalType":"address"}]},{"type":"error","name":"PartnerRegistrationRequestAlreadySubmitted","inputs":[{"name":"partner","type":"address","internalType":"address"}]},{"type":"error","name":"PartnerRegistrationRequestNotFound","inputs":[{"name":"partner","type":"address","internalType":"address"}]},{"type":"error","name":"UserAlreadyRegistered","inputs":[{"name":"user","type":"address","internalType":"address"}]}],"bytecode":{"object":"0x608060405234801561000f575f5ffd5b50604051613e24380380613e2483398101604081905261002e916100c6565b806001600160a01b03811661005c57604051631e4fbdf760e01b81525f600482015260240160405180910390fd5b61006581610077565b505066038d7ea4c680006001556100f3565b5f80546001600160a01b038381166001600160a01b0319831681178455604051919092169283917f8be0079c531659141344cd1fd0a4f28419497f9722a3daafe3b4186f6b6457e09190a35050565b5f602082840312156100d6575f5ffd5b81516001600160a01b03811681146100ec575f5ffd5b9392505050565b613d24806101005f395ff3fe6080604052600436106100ef575f3560e01c80638bb0f63911610087578063bfb8c6fb11610057578063bfb8c6fb14610271578063cc1b7bd614610284578063dd4a9c5c146102b0578063f2fde38b146102d3575f5ffd5b80638bb0f639146101e15780638c0f9aac146102005780638da5cb5b1461021f5780638eb072d914610252575f5ffd5b80636fbb8703116100c25780636fbb870314610170578063715018a61461018f57806371ad052c146101a35780638987a910146101c2575f5ffd5b806306f9a17d146100f35780630a61744e146101095780633ccfd60b146101285780634209fff11461013c575b5f5ffd5b3480156100fe575f5ffd5b506101076102f2565b005b348015610114575f5ffd5b506101076101233660046111ca565b610474565b348015610133575f5ffd5b506101076104c3565b348015610147575f5ffd5b5061015b6101563660046111ca565b610512565b60405190151581526020015b60405180910390f35b34801561017b575f5ffd5b5061015b61018a3660046111ca565b610524565b34801561019a575f5ffd5b50610107610530565b3480156101ae575f5ffd5b506101076101bd3660046111e5565b610543565b3480156101cd575f5ffd5b5061015b6101dc3660046111ca565b610550565b3480156101ec575f5ffd5b506101076101fb3660046111ca565b61055c565b34801561020b575f5ffd5b5061015b61021a3660046111ca565b6105de565b34801561022a575f5ffd5b505f5460405173ffffffffffffffffffffffffffffffffffffffff9091168152602001610167565b34801561025d575f5ffd5b5061010761026c3660046111ca565b6105ea565b61010761027f3660046112b5565b610835565b34801561028f575f5ffd5b506102a361029e3660046111ca565b610b90565b604051610167919061135d565b3480156102bb575f5ffd5b506102c560015481565b604051908152602001610167565b3480156102de575f5ffd5b506101076102ed3660046111ca565b610ed0565b336102fc81610512565b158190610353576040517f9e676ee700000000000000000000000000000000000000000000000000000000815273ffffffffffffffffffffffffffffffffffffffff90911660048201526024015b60405180910390fd5b503361035e816105de565b158015610371575061036f81610550565b155b81906103c2576040517f4147c41200000000000000000000000000000000000000000000000000000000815273ffffffffffffffffffffffffffffffffffffffff909116600482015260240161034a565b50336103e25f5473ffffffffffffffffffffffffffffffffffffffff1690565b73ffffffffffffffffffffffffffffffffffffffff168173ffffffffffffffffffffffffffffffffffffffff1614158190610462576040517f7160398a00000000000000000000000000000000000000000000000000000000815273ffffffffffffffffffffffffffffffffffffffff909116600482015260240161034a565b5061046e600933610f30565b50505050565b61047c610f58565b600b80547fffffffffffffffffffffffff00000000000000000000000000000000000000001673ffffffffffffffffffffffffffffffffffffffff92909216919091179055565b6104cb610f58565b5f805460405173ffffffffffffffffffffffffffffffffffffffff909116914780156108fc02929091818181858888f1935050505015801561050f573d5f5f3e3d5ffd5b50565b5f61051e600983610faa565b92915050565b5f61051e600583610faa565b610538610f58565b6105415f610fd8565b565b61054b610f58565b600155565b5f61051e600783610faa565b610564610f58565b80610570600282610faa565b81906105c1576040517fdf30433b00000000000000000000000000000000000000000000000000000000815273ffffffffffffffffffffffffffffffffffffffff909116600482015260240161034a565b506105cd60028361104c565b506105d9600783610f30565b505050565b5f61051e600283610faa565b6105f2610f58565b806105fe600582610faa565b819061064f576040517f4711153e00000000000000000000000000000000000000000000000000000000815273ffffffffffffffffffffffffffffffffffffffff909116600482015260240161034a565b5061065b60058361104c565b50610667600283610f30565b5073ffffffffffffffffffffffffffffffffffffffff82165f9081526004602052604080822090519091903090839060018201906106a49061119c565b6106b0939291906114e2565b604051809103905ff0801580156106c9573d5f5f3e3d5ffd5b5060028301805473ffffffffffffffffffffffffffffffffffffffff83167fffffffffffffffffffffffff0000000000000000000000000000000000000000909116811790915590915063c634b78e6107365f5473ffffffffffffffffffffffffffffffffffffffff1690565b6040517fffffffff0000000000000000000000000000000000000000000000000000000060e084901b16815273ffffffffffffffffffffffffffffffffffffffff90911660048201526024015f604051808303815f87803b158015610799575f5ffd5b505af11580156107ab573d5f5f3e3d5ffd5b5050600b546040517f3dd1eb6100000000000000000000000000000000000000000000000000000000815273ffffffffffffffffffffffffffffffffffffffff91821660048201529084169250633dd1eb6191506024015f604051808303815f87803b158015610819575f5ffd5b505af115801561082b573d5f5f3e3d5ffd5b5050505050505050565b33610841600282610faa565b158190610893576040517f0186c88c00000000000000000000000000000000000000000000000000000000815273ffffffffffffffffffffffffffffffffffffffff909116600482015260240161034a565b50336108a0600582610faa565b1581906108f2576040517f8044a2b900000000000000000000000000000000000000000000000000000000815273ffffffffffffffffffffffffffffffffffffffff909116600482015260240161034a565b50336108ff600782610faa565b158190610951576040517fd6e29f1700000000000000000000000000000000000000000000000000000000815273ffffffffffffffffffffffffffffffffffffffff909116600482015260240161034a565b50336109715f5473ffffffffffffffffffffffffffffffffffffffff1690565b73ffffffffffffffffffffffffffffffffffffffff168173ffffffffffffffffffffffffffffffffffffffff16141581906109f1576040517f7160398a00000000000000000000000000000000000000000000000000000000815273ffffffffffffffffffffffffffffffffffffffff909116600482015260240161034a565b50336109fc81610512565b158190610a4e576040517f97c23b2900000000000000000000000000000000000000000000000000000000815273ffffffffffffffffffffffffffffffffffffffff909116600482015260240161034a565b50600154349080821015610a97576040517f709886f10000000000000000000000000000000000000000000000000000000081526004810192909252602482015260440161034a565b50610aa59050600533610f30565b506040805160a08101825288815260208082018990525f82840181905283518083018552818152606084015283518083018552818152608084015233815260049091529190912081518190610afa9082611577565b5060208201516001820190610b0f9082611577565b5060408201516002820180547fffffffffffffffffffffffff00000000000000000000000000000000000000001673ffffffffffffffffffffffffffffffffffffffff90921691909117905560608201516003820190610b6f9082611577565b5060808201516004820190610b849082611577565b50505050505050505050565b610bd76040518060a0016040528060608152602001606081526020015f73ffffffffffffffffffffffffffffffffffffffff16815260200160608152602001606081525090565b81610be3600282610faa565b8190610c34576040517fdf30433b00000000000000000000000000000000000000000000000000000000815273ffffffffffffffffffffffffffffffffffffffff909116600482015260240161034a565b5073ffffffffffffffffffffffffffffffffffffffff83165f9081526004602052604090819020815160a08101909252805482908290610c73906113fa565b80601f0160208091040260200160405190810160405280929190818152602001828054610c9f906113fa565b8015610cea5780601f10610cc157610100808354040283529160200191610cea565b820191905f5260205f20905b815481529060010190602001808311610ccd57829003601f168201915b50505050508152602001600182018054610d03906113fa565b80601f0160208091040260200160405190810160405280929190818152602001828054610d2f906113fa565b8015610d7a5780601f10610d5157610100808354040283529160200191610d7a565b820191905f5260205f20905b815481529060010190602001808311610d5d57829003601f168201915b5050509183525050600282015473ffffffffffffffffffffffffffffffffffffffff166020820152600382018054604090920191610db7906113fa565b80601f0160208091040260200160405190810160405280929190818152602001828054610de3906113fa565b8015610e2e5780601f10610e0557610100808354040283529160200191610e2e565b820191905f5260205f20905b815481529060010190602001808311610e1157829003601f168201915b50505050508152602001600482018054610e47906113fa565b80601f0160208091040260200160405190810160405280929190818152602001828054610e73906113fa565b8015610ebe5780601f10610e9557610100808354040283529160200191610ebe565b820191905f5260205f20905b815481529060010190602001808311610ea157829003601f168201915b50505050508152505091505b50919050565b610ed8610f58565b73ffffffffffffffffffffffffffffffffffffffff8116610f27576040517f1e4fbdf70000000000000000000000000000000000000000000000000000000081525f600482015260240161034a565b61050f81610fd8565b5f610f518373ffffffffffffffffffffffffffffffffffffffff841661106d565b9392505050565b5f5473ffffffffffffffffffffffffffffffffffffffff163314610541576040517f118cdaa700000000000000000000000000000000000000000000000000000000815233600482015260240161034a565b73ffffffffffffffffffffffffffffffffffffffff81165f9081526001830160205260408120541515610f51565b5f805473ffffffffffffffffffffffffffffffffffffffff8381167fffffffffffffffffffffffff0000000000000000000000000000000000000000831681178455604051919092169283917f8be0079c531659141344cd1fd0a4f28419497f9722a3daafe3b4186f6b6457e09190a35050565b5f610f518373ffffffffffffffffffffffffffffffffffffffff84166110b9565b5f8181526001830160205260408120546110b257508154600181810184555f84815260208082209093018490558454848252828601909352604090209190915561051e565b505f61051e565b5f8181526001830160205260408120548015611193575f6110db600183611670565b85549091505f906110ee90600190611670565b905080821461114d575f865f01828154811061110c5761110c6116a8565b905f5260205f200154905080875f01848154811061112c5761112c6116a8565b5f918252602080832090910192909255918252600188019052604090208390555b855486908061115e5761115e6116d5565b600190038181905f5260205f20015f90559055856001015f8681526020019081526020015f205f90556001935050505061051e565b5f91505061051e565b6126158061170383390190565b73ffffffffffffffffffffffffffffffffffffffff8116811461050f575f5ffd5b5f602082840312156111da575f5ffd5b8135610f51816111a9565b5f602082840312156111f5575f5ffd5b5035919050565b7f4e487b71000000000000000000000000000000000000000000000000000000005f52604160045260245ffd5b5f82601f830112611238575f5ffd5b813567ffffffffffffffff811115611252576112526111fc565b604051601f19603f601f19601f8501160116810181811067ffffffffffffffff82111715611282576112826111fc565b604052818152838201602001851015611299575f5ffd5b816020850160208301375f918101602001919091529392505050565b5f5f604083850312156112c6575f5ffd5b823567ffffffffffffffff8111156112dc575f5ffd5b6112e885828601611229565b925050602083013567ffffffffffffffff811115611304575f5ffd5b61131085828601611229565b9150509250929050565b5f81518084525f5b8181101561133e57602081850181015186830182015201611322565b505f602082860101526020601f19601f83011685010191505092915050565b602081525f825160a0602084015261137860c084018261131a565b90506020840151601f19848303016040850152611395828261131a565b91505073ffffffffffffffffffffffffffffffffffffffff60408501511660608401526060840151601f198483030160808501526113d3828261131a565b9150506080840151601f198483030160a08501526113f1828261131a565b95945050505050565b600181811c9082168061140e57607f821691505b602082108103610eca577f4e487b71000000000000000000000000000000000000000000000000000000005f52602260045260245ffd5b5f8154611451816113fa565b80855260018216801561146b57600181146114a5576114d9565b7fffffffffffffffffffffffffffffffffffffffffffffffffffffffffffffff0083166020870152602082151560051b87010193506114d9565b845f5260205f205f5b838110156114d05781546020828a0101526001820191506020810190506114ae565b87016020019450505b50505092915050565b73ffffffffffffffffffffffffffffffffffffffff84168152606060208201525f6115106060830185611445565b82810360408401526115228185611445565b9695505050505050565b601f8211156105d957805f5260205f20601f840160051c810160208510156115515750805b601f840160051c820191505b81811015611570575f815560010161155d565b5050505050565b815167ffffffffffffffff811115611591576115916111fc565b6115a58161159f84546113fa565b8461152c565b6020601f8211600181146115f6575f83156115c05750848201515b7fffffffffffffffffffffffffffffffffffffffffffffffffffffffffffffffff600385901b1c1916600184901b178455611570565b5f84815260208120601f198516915b828110156116255787850151825560209485019460019092019101611605565b508482101561166157868401517fffffffffffffffffffffffffffffffffffffffffffffffffffffffffffffffff600387901b60f8161c191681555b50505050600190811b01905550565b8181038181111561051e577f4e487b71000000000000000000000000000000000000000000000000000000005f52601160045260245ffd5b7f4e487b71000000000000000000000000000000000000000000000000000000005f52603260045260245ffd5b7f4e487b71000000000000000000000000000000000000000000000000000000005f52603160045260245ffdfe608060405234801561000f575f5ffd5b5060405161261538038061261583398101604081905261002e91610247565b81815f61003b838261034d565b506001610048828261034d565b5061005791505f905084610060565b50505050610407565b5f8061006c8484610096565b9050801561008d575f84815260076020526040902061008b9084610141565b505b90505b92915050565b5f8281526006602090815260408083206001600160a01b038516845290915281205460ff1661013a575f8381526006602090815260408083206001600160a01b03861684529091529020805460ff191660011790556100f23390565b6001600160a01b0316826001600160a01b0316847f2f8788117e7eff1d82e926ec794901d17c78024a50270940304540a733656f0d60405160405180910390a4506001610090565b505f610090565b5f61008d836001600160a01b0384165f81815260018301602052604081205461013a57508154600181810184555f848152602080822090930184905584548482528286019093526040902091909155610090565b634e487b7160e01b5f52604160045260245ffd5b5f82601f8301126101b8575f5ffd5b81516001600160401b038111156101d1576101d1610195565b604051601f8201601f19908116603f011681016001600160401b03811182821017156101ff576101ff610195565b604052818152838201602001851015610216575f5ffd5b5f5b8281101561023457602081860181015183830182015201610218565b505f918101602001919091529392505050565b5f5f5f60608486031215610259575f5ffd5b83516001600160a01b038116811461026f575f5ffd5b60208501519093506001600160401b0381111561028a575f5ffd5b610296868287016101a9565b604086015190935090506001600160401b038111156102b3575f5ffd5b6102bf868287016101a9565b9150509250925092565b600181811c908216806102dd57607f821691505b6020821081036102fb57634e487b7160e01b5f52602260045260245ffd5b50919050565b601f82111561034857805f5260205f20601f840160051c810160208510156103265750805b601f840160051c820191505b81811015610345575f8155600101610332565b50505b505050565b81516001600160401b0381111561036657610366610195565b61037a8161037484546102c9565b84610301565b6020601f8211600181146103ac575f83156103955750848201515b5f19600385901b1c1916600184901b178455610345565b5f84815260208120601f198516915b828110156103db57878501518255602094850194600190920191016103bb565b50848210156103f857868401515f19600387901b60f8161c191681555b50505050600190811b01905550565b612201806104145f395ff3fe608060405234801561000f575f5ffd5b50600436106101e7575f3560e01c806370a0823111610109578063b88d4fde1161009e578063d53913931161006e578063d539139314610474578063d547741f1461049b578063e985e9c5146104ae578063f3cb8385146104e9575f5ffd5b8063b88d4fde14610428578063c634b78e1461043b578063c87b56dd1461044e578063ca15c87314610461575f5ffd5b80639a19c7b0116100d95780639a19c7b0146103db578063a217fddf146103ee578063a22cb465146103f5578063a3246ad314610408575f5ffd5b806370a08231146103755780639010d07c1461038857806391d148541461039b57806395d89b41146103d3575f5ffd5b80632f2ff15d1161017f57806340c10f191161014f57806340c10f191461032957806342842e0e1461033c5780636352211e1461034f57806369e2f0fb14610362575f5ffd5b80632f2ff15d146102dd57806336568abe146102f0578063392f37e9146103035780633dd1eb6114610316575f5ffd5b806313e26ecd116101ba57806313e26ecd146102685780631ba861d21461029557806323b872dd146102a8578063248a9ca3146102bb575f5ffd5b806301ffc9a7146101eb57806306fdde0314610213578063081812fc14610228578063095ea7b314610253575b5f5ffd5b6101fe6101f9366004611c91565b6104fc565b60405190151581526020015b60405180910390f35b61021b610567565b60405161020a9190611d17565b61023b610236366004611d29565b6105f6565b6040516001600160a01b03909116815260200161020a565b610266610261366004611d54565b61061d565b005b610287610276366004611d29565b600a6020525f908152604090205481565b60405190815260200161020a565b6102666102a3366004611d7e565b61062c565b6102666102b6366004611db0565b6106c7565b6102876102c9366004611d29565b5f9081526006602052604090206001015490565b6102666102eb366004611dee565b61077c565b6102666102fe366004611dee565b6107a0565b60095461023b906001600160a01b031681565b610266610324366004611e1c565b6107f1565b610266610337366004611d54565b61088f565b61026661034a366004611db0565b61097b565b61023b61035d366004611d29565b610995565b610266610370366004611e1c565b61099f565b610287610383366004611e1c565b610a3d565b61023b610396366004611e37565b610a9b565b6101fe6103a9366004611dee565b5f9182526006602090815260408084206001600160a01b0393909316845291905290205460ff1690565b61021b610ab9565b6102666103e9366004611e1c565b610ac8565b6102875f81565b610266610403366004611e57565b610b46565b61041b610416366004611d29565b610b51565b60405161020a9190611e87565b610266610436366004611eff565b610b6a565b610266610449366004611e1c565b610b82565b61021b61045c366004611d29565b610c00565b61028761046f366004611d29565b610c70565b6102877f9f2df0fed2c77648de5860a4cc508cd0818c85b8b8a1ab4ceeef8d981c8956a681565b6102666104a9366004611dee565b610c86565b6101fe6104bc36600461201d565b6001600160a01b039182165f90815260056020908152604080832093909416825291909152205460ff1690565b6102666104f7366004611e1c565b610caa565b5f61050682610d58565b80610515575061051582610e3a565b8061056157507fffffffff0000000000000000000000000000000000000000000000000000000082167f0f5a755100000000000000000000000000000000000000000000000000000000145b92915050565b60605f805461057590612049565b80601f01602080910402602001604051908101604052809291908181526020018280546105a190612049565b80156105ec5780601f106105c3576101008083540402835291602001916105ec565b820191905f5260205f20905b8154815290600101906020018083116105cf57829003601f168201915b5050505050905090565b5f61060082610e8f565b505f828152600460205260409020546001600160a01b0316610561565b610628828233610ee0565b5050565b335f8181527f3195c024b2ddd6d9b8f6c836aa52f67fe69376c8903d009b80229b3ce4425f51602052604090205460ff166106a4576040517fa2f5be5e0000000000000000000000000000000000000000000000000000000081526001600160a01b0390911660048201526024015b60405180910390fd5b505f5b828110156106c1576106b9848361088f565b6001016106a7565b50505050565b6001600160a01b038216610709576040517f64a0ae920000000000000000000000000000000000000000000000000000000081525f600482015260240161069b565b5f610715838333610eed565b9050836001600160a01b0316816001600160a01b0316146106c1576040517f64283d7b0000000000000000000000000000000000000000000000000000000081526001600160a01b038086166004830152602482018490528216604482015260640161069b565b5f8281526006602052604090206001015461079681610f50565b6106c18383610f5d565b6001600160a01b03811633146107e2576040517f6697b23200000000000000000000000000000000000000000000000000000000815260040160405180910390fd5b6107ec8282610f90565b505050565b335f8181527f54cdd369e4e8a8515e52ca72ec816c2101831ad1f18bf44102ed171459c9b4f8602052604090205460ff16610864576040517fbc9a28d40000000000000000000000000000000000000000000000000000000081526001600160a01b03909116600482015260240161069b565b506106287f9f2df0fed2c77648de5860a4cc508cd0818c85b8b8a1ab4ceeef8d981c8956a682610f5d565b335f8181527f3195c024b2ddd6d9b8f6c836aa52f67fe69376c8903d009b80229b3ce4425f51602052604090205460ff16610902576040517fa2f5be5e0000000000000000000000000000000000000000000000000000000081526001600160a01b03909116600482015260240161069b565b50600880549081905f610914836120c7565b91905055506109238382610fbb565b60408051602080820183528482525f848152600a9091528281209151909155905183916001600160a01b0386169184917fc9d0543a84d3510329c0783b91576878ceb484e8699944cb5610c3436b3b8e3991a4505050565b6107ec83838360405180602001604052805f815250610b6a565b5f61056182610e8f565b335f8181527f54cdd369e4e8a8515e52ca72ec816c2101831ad1f18bf44102ed171459c9b4f8602052604090205460ff16610a12576040517fbc9a28d40000000000000000000000000000000000000000000000000000000081526001600160a01b03909116600482015260240161069b565b506106287f9f2df0fed2c77648de5860a4cc508cd0818c85b8b8a1ab4ceeef8d981c8956a682610f90565b5f6001600160a01b038216610a80576040517f89c62b640000000000000000000000000000000000000000000000000000000081525f600482015260240161069b565b506001600160a01b03165f9081526003602052604090205490565b5f828152600760205260408120610ab29083610fd4565b9392505050565b60606001805461057590612049565b335f8181527f54cdd369e4e8a8515e52ca72ec816c2101831ad1f18bf44102ed171459c9b4f8602052604090205460ff16610b3b576040517fbc9a28d40000000000000000000000000000000000000000000000000000000081526001600160a01b03909116600482015260240161069b565b506106285f82610f90565b610628338383610fdf565b5f818152600760205260409020606090610561906110b4565b610b758484846106c7565b6106c133858585856110c0565b335f8181527f54cdd369e4e8a8515e52ca72ec816c2101831ad1f18bf44102ed171459c9b4f8602052604090205460ff16610bf5576040517fbc9a28d40000000000000000000000000000000000000000000000000000000081526001600160a01b03909116600482015260240161069b565b506106285f82610f5d565b6060610c0b82610e8f565b505f610c2160408051602081019091525f815290565b90505f815111610c3f5760405180602001604052805f815250610ab2565b80610c4984611282565b604051602001610c5a9291906120fe565b6040516020818303038152906040529392505050565b5f8181526007602052604081206105619061133e565b5f82815260066020526040902060010154610ca081610f50565b6106c18383610f90565b335f8181527f54cdd369e4e8a8515e52ca72ec816c2101831ad1f18bf44102ed171459c9b4f8602052604090205460ff16610d1d576040517fbc9a28d40000000000000000000000000000000000000000000000000000000081526001600160a01b03909116600482015260240161069b565b50600980547fffffffffffffffffffffffff0000000000000000000000000000000000000000166001600160a01b0392909216919091179055565b5f7fffffffff0000000000000000000000000000000000000000000000000000000082167f80ac58cd000000000000000000000000000000000000000000000000000000001480610dea57507fffffffff0000000000000000000000000000000000000000000000000000000082167f5b5e139f00000000000000000000000000000000000000000000000000000000145b8061056157507f01ffc9a7000000000000000000000000000000000000000000000000000000007fffffffff00000000000000000000000000000000000000000000000000000000831614610561565b5f7fffffffff0000000000000000000000000000000000000000000000000000000082167f5a05180f000000000000000000000000000000000000000000000000000000001480610561575061056182611347565b5f818152600260205260408120546001600160a01b031680610561576040517f7e2732890000000000000000000000000000000000000000000000000000000081526004810184905260240161069b565b6107ec838383600161139c565b5f828152600260205260408120546001600160a01b03168015610f3c576040517f216dcda700000000000000000000000000000000000000000000000000000000815260040160405180910390fd5b610f478585856114ef565b95945050505050565b610f5a8133611618565b50565b5f5f610f698484611685565b90508015610ab2575f848152600760205260409020610f88908461174e565b509392505050565b5f5f610f9c8484611762565b90508015610ab2575f848152600760205260409020610f889084611805565b610628828260405180602001604052805f815250611819565b5f610ab28383611830565b6001600160a01b03821661102a576040517f5b08ba180000000000000000000000000000000000000000000000000000000081526001600160a01b038316600482015260240161069b565b6001600160a01b038381165f8181526005602090815260408083209487168084529482529182902080547fffffffffffffffffffffffffffffffffffffffffffffffffffffffffffffff001686151590811790915591519182527f17307eab39ab6107e8899845ad3d59bd9653f200f220920489ca2b5937696c31910160405180910390a3505050565b60605f610ab283611856565b6001600160a01b0383163b1561127b576040517f150b7a020000000000000000000000000000000000000000000000000000000081526001600160a01b0384169063150b7a029061111b90889088908790879060040161212c565b6020604051808303815f875af1925050508015611173575060408051601f3d9081017fffffffffffffffffffffffffffffffffffffffffffffffffffffffffffffffe01682019092526111709181019061216c565b60015b6111f3573d8080156111a0576040519150601f19603f3d011682016040523d82523d5f602084013e6111a5565b606091505b5080515f036111eb576040517f64a0ae920000000000000000000000000000000000000000000000000000000081526001600160a01b038516600482015260240161069b565b805181602001fd5b7fffffffff0000000000000000000000000000000000000000000000000000000081167f150b7a020000000000000000000000000000000000000000000000000000000014611279576040517f64a0ae920000000000000000000000000000000000000000000000000000000081526001600160a01b038516600482015260240161069b565b505b5050505050565b60605f61128e836118af565b60010190505f8167ffffffffffffffff8111156112ad576112ad611ed2565b6040519080825280601f01601f1916602001820160405280156112d7576020820181803683370190505b5090508181016020015b7fffffffffffffffffffffffffffffffffffffffffffffffffffffffffffffffff017f3031323334353637383961626364656600000000000000000000000000000000600a86061a8153600a85049450846112e157509392505050565b5f610561825490565b5f7fffffffff0000000000000000000000000000000000000000000000000000000082167f7965db0b000000000000000000000000000000000000000000000000000000001480610561575061056182610d58565b80806113b057506001600160a01b03821615155b156114a8575f6113bf84610e8f565b90506001600160a01b038316158015906113eb5750826001600160a01b0316816001600160a01b031614155b801561141c57506001600160a01b038082165f9081526005602090815260408083209387168352929052205460ff16155b1561145e576040517fa9fbf51f0000000000000000000000000000000000000000000000000000000081526001600160a01b038416600482015260240161069b565b81156114a65783856001600160a01b0316826001600160a01b03167f8c5be1e5ebec7d5bd14f71427d1e84f3dd0314c0f7b2291e5b200ac8c7c3b92560405160405180910390a45b505b50505f90815260046020526040902080547fffffffffffffffffffffffff0000000000000000000000000000000000000000166001600160a01b0392909216919091179055565b5f828152600260205260408120546001600160a01b039081169083161561151b5761151b818486611990565b6001600160a01b03811615611574576115365f855f5f61139c565b6001600160a01b0381165f90815260036020526040902080547fffffffffffffffffffffffffffffffffffffffffffffffffffffffffffffffff0190555b6001600160a01b038516156115a2576001600160a01b0385165f908152600360205260409020805460010190555b5f8481526002602052604080822080547fffffffffffffffffffffffff0000000000000000000000000000000000000000166001600160a01b0389811691821790925591518793918516917fddf252ad1be2c89b69c2b068fc378daa952ba7f163c4a11628f55a4df523b3ef91a4949350505050565b5f8281526006602090815260408083206001600160a01b038516845290915290205460ff16610628576040517fe2517d3f0000000000000000000000000000000000000000000000000000000081526001600160a01b03821660048201526024810183905260440161069b565b5f8281526006602090815260408083206001600160a01b038516845290915281205460ff16611747575f8381526006602090815260408083206001600160a01b0386168452909152902080547fffffffffffffffffffffffffffffffffffffffffffffffffffffffffffffff001660011790556116ff3390565b6001600160a01b0316826001600160a01b0316847f2f8788117e7eff1d82e926ec794901d17c78024a50270940304540a733656f0d60405160405180910390a4506001610561565b505f610561565b5f610ab2836001600160a01b038416611a26565b5f8281526006602090815260408083206001600160a01b038516845290915281205460ff1615611747575f8381526006602090815260408083206001600160a01b038616808552925280832080547fffffffffffffffffffffffffffffffffffffffffffffffffffffffffffffff0016905551339286917ff6391f5c32d9c69d2a47ea670b442974b53935d1edc7fd64eb21e047a839171b9190a4506001610561565b5f610ab2836001600160a01b038416611a6b565b6118238383611b4e565b6107ec335f8585856110c0565b5f825f01828154811061184557611845612187565b905f5260205f200154905092915050565b6060815f018054806020026020016040519081016040528092919081815260200182805480156118a357602002820191905f5260205f20905b81548152602001906001019080831161188f575b50505050509050919050565b5f807a184f03e93ff9f4daa797ed6e38ed64bf6a1f01000000000000000083106118f7577a184f03e93ff9f4daa797ed6e38ed64bf6a1f010000000000000000830492506040015b6d04ee2d6d415b85acef81000000008310611923576d04ee2d6d415b85acef8100000000830492506020015b662386f26fc10000831061194157662386f26fc10000830492506010015b6305f5e1008310611959576305f5e100830492506008015b612710831061196d57612710830492506004015b6064831061197f576064830492506002015b600a83106105615760010192915050565b61199b838383611be1565b6107ec576001600160a01b0383166119e2576040517f7e2732890000000000000000000000000000000000000000000000000000000081526004810182905260240161069b565b6040517f177e802f0000000000000000000000000000000000000000000000000000000081526001600160a01b03831660048201526024810182905260440161069b565b5f81815260018301602052604081205461174757508154600181810184555f848152602080822090930184905584548482528286019093526040902091909155610561565b5f8181526001830160205260408120548015611b45575f611a8d6001836121b4565b85549091505f90611aa0906001906121b4565b9050808214611aff575f865f018281548110611abe57611abe612187565b905f5260205f200154905080875f018481548110611ade57611ade612187565b5f918252602080832090910192909255918252600188019052604090208390555b8554869080611b1057611b106121c7565b600190038181905f5260205f20015f90559055856001015f8681526020019081526020015f205f905560019350505050610561565b5f915050610561565b6001600160a01b038216611b90576040517f64a0ae920000000000000000000000000000000000000000000000000000000081525f600482015260240161069b565b5f611b9c83835f610eed565b90506001600160a01b038116156107ec576040517f73c6ac6e0000000000000000000000000000000000000000000000000000000081525f600482015260240161069b565b5f6001600160a01b03831615801590611c5c5750826001600160a01b0316846001600160a01b03161480611c3957506001600160a01b038085165f9081526005602090815260408083209387168352929052205460ff165b80611c5c57505f828152600460205260409020546001600160a01b038481169116145b949350505050565b7fffffffff0000000000000000000000000000000000000000000000000000000081168114610f5a575f5ffd5b5f60208284031215611ca1575f5ffd5b8135610ab281611c64565b5f5b83811015611cc6578181015183820152602001611cae565b50505f910152565b5f8151808452611ce5816020860160208601611cac565b601f017fffffffffffffffffffffffffffffffffffffffffffffffffffffffffffffffe0169290920160200192915050565b602081525f610ab26020830184611cce565b5f60208284031215611d39575f5ffd5b5035919050565b6001600160a01b0381168114610f5a575f5ffd5b5f5f60408385031215611d65575f5ffd5b8235611d7081611d40565b946020939093013593505050565b5f5f5f60608486031215611d90575f5ffd5b8335611d9b81611d40565b95602085013595506040909401359392505050565b5f5f5f60608486031215611dc2575f5ffd5b8335611dcd81611d40565b92506020840135611ddd81611d40565b929592945050506040919091013590565b5f5f60408385031215611dff575f5ffd5b823591506020830135611e1181611d40565b809150509250929050565b5f60208284031215611e2c575f5ffd5b8135610ab281611d40565b5f5f60408385031215611e48575f5ffd5b50508035926020909101359150565b5f5f60408385031215611e68575f5ffd5b8235611e7381611d40565b915060208301358015158114611e11575f5ffd5b602080825282518282018190525f918401906040840190835b81811015611ec75783516001600160a01b0316835260209384019390920191600101611ea0565b509095945050505050565b7f4e487b71000000000000000000000000000000000000000000000000000000005f52604160045260245ffd5b5f5f5f5f60808587031215611f12575f5ffd5b8435611f1d81611d40565b93506020850135611f2d81611d40565b925060408501359150606085013567ffffffffffffffff811115611f4f575f5ffd5b8501601f81018713611f5f575f5ffd5b803567ffffffffffffffff811115611f7957611f79611ed2565b6040517fffffffffffffffffffffffffffffffffffffffffffffffffffffffffffffffe0603f7fffffffffffffffffffffffffffffffffffffffffffffffffffffffffffffffe0601f8501160116810181811067ffffffffffffffff82111715611fe557611fe5611ed2565b604052818152828201602001891015611ffc575f5ffd5b816020840160208301375f6020838301015280935050505092959194509250565b5f5f6040838503121561202e575f5ffd5b823561203981611d40565b91506020830135611e1181611d40565b600181811c9082168061205d57607f821691505b602082108103612094577f4e487b71000000000000000000000000000000000000000000000000000000005f52602260045260245ffd5b50919050565b7f4e487b71000000000000000000000000000000000000000000000000000000005f52601160045260245ffd5b5f7fffffffffffffffffffffffffffffffffffffffffffffffffffffffffffffffff82036120f7576120f761209a565b5060010190565b5f835161210f818460208801611cac565b835190830190612123818360208801611cac565b01949350505050565b6001600160a01b03851681526001600160a01b0384166020820152826040820152608060608201525f6121626080830184611cce565b9695505050505050565b5f6020828403121561217c575f5ffd5b8151610ab281611c64565b7f4e487b71000000000000000000000000000000000000000000000000000000005f52603260045260245ffd5b818103818111156105615761056161209a565b7f4e487b71000000000000000000000000000000000000000000000000000000005f52603160045260245ffdfea164736f6c634300081c000aa164736f6c634300081c000a","linkReferences":{}},"methodIdentifiers":{"approvePartnerRegistration(address)":"8eb072d9","getPartnerSettings(address)":"cc1b7bd6","isPartner(address)":"8c0f9aac","isRevokedPartner(address)":"8987a910","isUser(address)":"4209fff1","owner()":"8da5cb5b","partnerRegistrationFee()":"dd4a9c5c","partnerRegistrationRequestExists(address)":"6fbb8703","registerAsUser()":"06f9a17d","renounceOwnership()":"715018a6","requestRegistrationAsPartner(string,string)":"bfb8c6fb","revokePartnerRegistration(address)":"8bb0f639","setChallengeRewardStrategy(address)":"0a61744e","setPartnerRegistrationFee(uint256)":"71ad052c","transferOwnership(address)":"f2fde38b","withdraw()":"3ccfd60b"},"id":21}