{"abi":[{"type":"constructor","inputs":[{"name":"owner","type":"address","internalType":"address"}],"stateMutability":"nonpayable"},{"type":"function","name":"challengeManager","inputs":[],"outputs":[{"name":"","type":"address","internalType":"contract IChallengeManager"}],"stateMutability":"view"},{"type":"function","name":"claimReward","inputs":[{"name":"challengeCompletionId","type":"uint256","internalType":"uint256"}],"outputs":[],"stateMutability":"nonpayable"},{"type":"function","name":"owner","inputs":[],"outputs":[{"name":"","type":"address","internalType":"address"}],"stateMutability":"view"},{"type":"function","name":"renounceOwnership","inputs":[],"outputs":[],"stateMutability":"nonpayable"},{"type":"function","name":"setChallengeManager","inputs":[{"name":"challengeManager_","type":"address","internalType":"contract IChallengeManager"}],"outputs":[],"stateMutability":"nonpayable"},{"type":"function","name":"setRewardAmount","inputs":[{"name":"tokenRewardAmount_","type":"uint256","internalType":"uint256"}],"outputs":[],"stateMutability":"nonpayable"},{"type":"function","name":"tokenRewardAmount","inputs":[],"outputs":[{"name":"","type":"uint256","internalType":"uint256"}],"stateMutability":"view"},{"type":"function","name":"transferOwnership","inputs":[{"name":"newOwner","type":"address","internalType":"address"}],"outputs":[],"stateMutability":"nonpayable"},{"type":"event","name":"OwnershipTransferred","inputs":[{"name":"previousOwner","type":"address","indexed":true,"internalType":"address"},{"name":"newOwner","type":"address","indexed":true,"internalType":"address"}],"anonymous":false},{"type":"error","name":"InvalidChallengeCompletionSubmitter","inputs":[{"name":"challengeCompletionId","type":"uint256","internalType":"uint256"},{"name":"submitter","type":"address","internalType":"address"}]},{"type":"error","name":"InvalidTokenRewardAmount","inputs":[{"name":"tokenRewardAmount","type":"uint256","internalType":"uint256"}]},{"type":"error","name":"NoPendingReward","inputs":[{"name":"challengeCompletionId","type":"uint256","internalType":"uint256"}]},{"type":"error","name":"NonExistingChallengeCompletion","inputs":[{"name":"challengeCompletionId","type":"uint256","internalType":"uint256"}]},{"type":"error","name":"OwnableInvalidOwner","inputs":[{"name":"owner","type":"address","internalType":"address"}]},{"type":"error","name":"OwnableUnauthorizedAccount","inputs":[{"name":"account","type":"address","internalType":"address"}]}],"bytecode":{"object":"0x608060405234801561000f575f5ffd5b50604051610cce380380610cce83398101604081905261002e916100c0565b806001600160a01b03811661005c57604051631e4fbdf760e01b81525f600482015260240160405180910390fd5b61006581610071565b505060016002556100ed565b5f80546001600160a01b038381166001600160a01b0319831681178455604051919092169283917f8be0079c531659141344cd1fd0a4f28419497f9722a3daafe3b4186f6b6457e09190a35050565b5f602082840312156100d0575f5ffd5b81516001600160a01b03811681146100e6575f5ffd5b9392505050565b610bd4806100fa5f395ff3fe608060405234801561000f575f5ffd5b5060043610610085575f3560e01c8063a8a65a7811610058578063a8a65a7814610111578063ae169a5014610124578063b7626e7314610137578063f2fde38b1461014a575f5ffd5b8063023a96fe14610089578063715018a6146100d35780638da5cb5b146100dd5780639c642d5d146100fa575b5f5ffd5b6001546100a99073ffffffffffffffffffffffffffffffffffffffff1681565b60405173ffffffffffffffffffffffffffffffffffffffff90911681526020015b60405180910390f35b6100db61015d565b005b5f5473ffffffffffffffffffffffffffffffffffffffff166100a9565b61010360025481565b6040519081526020016100ca565b6100db61011f3660046107e0565b610170565b6100db6101323660046107e0565b6101d4565b6100db610145366004610818565b610668565b6100db610158366004610818565b6106b7565b61016561071a565b61016e5f61076c565b565b61017861071a565b805f811180156101895750600a8111155b81906101cd576040517fdc0437be0000000000000000000000000000000000000000000000000000000081526004016101c491815260200190565b60405180910390fd5b5050600255565b6001546040517f1281f17000000000000000000000000000000000000000000000000000000000815260048101839052829173ffffffffffffffffffffffffffffffffffffffff1690631281f17090602401602060405180830381865afa158015610241573d5f5f3e3d5ffd5b505050506040513d601f19601f82011682018060405250810190610265919061084e565b81906102a0576040517fbb7040000000000000000000000000000000000000000000000000000000000081526004016101c491815260200190565b506001546040517f5bbf46110000000000000000000000000000000000000000000000000000000081526004810184905283913391829173ffffffffffffffffffffffffffffffffffffffff1690635bbf4611906024015f60405180830381865afa158015610311573d5f5f3e3d5ffd5b505050506040513d5f823e601f3d9081017fffffffffffffffffffffffffffffffffffffffffffffffffffffffffffffffe016820160405261035691908101906109bc565b6020015173ffffffffffffffffffffffffffffffffffffffff1614828290916103ca576040517f28530a7f000000000000000000000000000000000000000000000000000000008152600481019290925273ffffffffffffffffffffffffffffffffffffffff1660248201526044016101c4565b50506001546040517fa778b82000000000000000000000000000000000000000000000000000000000815260048101869052859173ffffffffffffffffffffffffffffffffffffffff169063a778b82090602401602060405180830381865afa158015610439573d5f5f3e3d5ffd5b505050506040513d601f19601f8201168201806040525081019061045d919061084e565b8190610498576040517fa9c5ee720000000000000000000000000000000000000000000000000000000081526004016101c491815260200190565b506001546040517f660de86c0000000000000000000000000000000000000000000000000000000081526004810187905273ffffffffffffffffffffffffffffffffffffffff9091169063660de86c906024015f604051808303815f87803b158015610502575f5ffd5b505af1158015610514573d5f5f3e3d5ffd5b50506001546040517f0bd2e885000000000000000000000000000000000000000000000000000000008152600481018990525f935073ffffffffffffffffffffffffffffffffffffffff9091169150630bd2e885906024015f60405180830381865afa158015610586573d5f5f3e3d5ffd5b505050506040513d5f823e601f3d9081017fffffffffffffffffffffffffffffffffffffffffffffffffffffffffffffffe01682016040526105cb9190810190610a89565b60408181015160025491517f1ba861d200000000000000000000000000000000000000000000000000000000815233600482015260248101929092526044820189905291925073ffffffffffffffffffffffffffffffffffffffff821690631ba861d2906064015f604051808303815f87803b158015610649575f5ffd5b505af115801561065b573d5f5f3e3d5ffd5b5050505050505050505050565b61067061071a565b600180547fffffffffffffffffffffffff00000000000000000000000000000000000000001673ffffffffffffffffffffffffffffffffffffffff92909216919091179055565b6106bf61071a565b73ffffffffffffffffffffffffffffffffffffffff811661070e576040517f1e4fbdf70000000000000000000000000000000000000000000000000000000081525f60048201526024016101c4565b6107178161076c565b50565b5f5473ffffffffffffffffffffffffffffffffffffffff16331461016e576040517f118cdaa70000000000000000000000000000000000000000000000000000000081523360048201526024016101c4565b5f805473ffffffffffffffffffffffffffffffffffffffff8381167fffffffffffffffffffffffff0000000000000000000000000000000000000000831681178455604051919092169283917f8be0079c531659141344cd1fd0a4f28419497f9722a3daafe3b4186f6b6457e09190a35050565b5f602082840312156107f0575f5ffd5b5035919050565b73ffffffffffffffffffffffffffffffffffffffff81168114610717575f5ffd5b5f60208284031215610828575f5ffd5b8135610833816107f7565b9392505050565b80518015158114610849575f5ffd5b919050565b5f6020828403121561085e575f5ffd5b6108338261083a565b7f4e487b71000000000000000000000000000000000000000000000000000000005f52604160045260245ffd5b60405160e0810167ffffffffffffffff811182821017156108b7576108b7610867565b60405290565b604051610180810167ffffffffffffffff811182821017156108b7576108b7610867565b8051610849816107f7565b5f82601f8301126108fb575f5ffd5b8151602083015f5f67ffffffffffffffff84111561091b5761091b610867565b506040517fffffffffffffffffffffffffffffffffffffffffffffffffffffffffffffffe0601f85018116603f0116810181811067ffffffffffffffff8211171561096857610968610867565b60405283815290508082840187101561097f575f5ffd5b6020810191505f5b8481101561099f578381015183820152602001610987565b505f9190930152509392505050565b805160038110610849575f5ffd5b5f602082840312156109cc575f5ffd5b815167ffffffffffffffff8111156109e2575f5ffd5b820160e081850312156109f3575f5ffd5b6109fb610894565b81518152610a0b602083016108e1565b602082015260408281015190820152606082015167ffffffffffffffff811115610a33575f5ffd5b610a3f868285016108ec565b606083015250610a51608083016109ae565b6080820152610a6260a0830161083a565b60a082015260c091820151918101919091529392505050565b805160028110610849575f5ffd5b5f60208284031215610a99575f5ffd5b815167ffffffffffffffff811115610aaf575f5ffd5b82016101808185031215610ac1575f5ffd5b610ac96108bd565b81518152610ad9602083016108e1565b6020820152610aea604083016108e1565b6040820152610afb60608301610a7b565b6060820152608082015167ffffffffffffffff811115610b19575f5ffd5b610b25868285016108ec565b60808301525060a082015167ffffffffffffffff811115610b44575f5ffd5b610b50868285016108ec565b60a08301525060c082015167ffffffffffffffff811115610b6f575f5ffd5b610b7b868285016108ec565b60c08301525060e08281015190820152610100808301519082015261012080830151908201526101408083015190820152610bb961016083016109ae565b61016082015294935050505056fea164736f6c634300081c000a","linkReferences":{}},"methodIdentifiers":{"challengeManager()":"023a96fe","claimReward(uint256)":"ae169a50","owner()":"8da5cb5b","renounceOwnership()":"715018a6","setChallengeManager(address)":"b7626e73","setRewardAmount(uint256)":"a8a65a78","tokenRewardAmount()":"9c642d5d","transferOwnership(address)":"f2fde38b"},"id":31}