{"abi":[{"type":"constructor","inputs":[{"name":"defaultAdmin","type":"address","internalType":"address"},{"name":"name_","type":"string","internalType":"string"},{"name":"symbol_","type":"string","internalType":"string"}],"stateMutability":"nonpayable"},{"type":"function","name":"DEFAULT_ADMIN_ROLE","inputs":[],"outputs":[{"name":"","type":"bytes32","internalType":"bytes32"}],"stateMutability":"view"},{"type":"function","name":"MINTER_ROLE","inputs":[],"outputs":[{"name":"","type":"bytes32","internalType":"bytes32"}],"stateMutability":"view"},{"type":"function","name":"approve","inputs":[{"name":"to","type":"address","internalType":"address"},{"name":"tokenId","type":"uint256","internalType":"uint256"}],"outputs":[],"stateMutability":"nonpayable"},{"type":"function","name":"balanceOf","inputs":[{"name":"owner","type":"address","internalType":"address"}],"outputs":[{"name":"","type":"uint256","internalType":"uint256"}],"stateMutability":"view"},{"type":"function","name":"getApproved","inputs":[{"name":"tokenId","type":"uint256","internalType":"uint256"}],"outputs":[{"name":"","type":"address","internalType":"address"}],"stateMutability":"view"},{"type":"function","name":"getRoleAdmin","inputs":[{"name":"role","type":"bytes32","internalType":"bytes32"}],"outputs":[{"name":"","type":"bytes32","internalType":"bytes32"}],"stateMutability":"view"},{"type":"function","name":"getRoleMember","inputs":[{"name":"role","type":"bytes32","internalType":"bytes32"},{"name":"index","type":"uint256","internalType":"uint256"}],"outputs":[{"name":"","type":"address","internalType":"address"}],"stateMutability":"view"},{"type":"function","name":"getRoleMemberCount","inputs":[{"name":"role","type":"bytes32","internalType":"bytes32"}],"outputs":[{"name":"","type":"uint256","internalType":"uint256"}],"stateMutability":"view"},{"type":"function","name":"getRoleMembers","inputs":[{"name":"role","type":"bytes32","internalType":"bytes32"}],"outputs":[{"name":"","type":"address[]","internalType":"address[]"}],"stateMutability":"view"},{"type":"function","name":"grantAdminRole","inputs":[{"name":"admin","type":"address","internalType":"address"}],"outputs":[],"stateMutability":"nonpayable"},{"type":"function","name":"grantMinterRole","inputs":[{"name":"minter","type":"address","internalType":"address"}],"outputs":[],"stateMutability":"nonpayable"},{"type":"function","name":"grantRole","inputs":[{"name":"role","type":"bytes32","internalType":"bytes32"},{"name":"account","type":"address","internalType":"address"}],"outputs":[],"stateMutability":"nonpayable"},{"type":"function","name":"hasRole","inputs":[{"name":"role","type":"bytes32","internalType":"bytes32"},{"name":"account","type":"address","internalType":"address"}],"outputs":[{"name":"","type":"bool","internalType":"bool"}],"stateMutability":"view"},{"type":"function","name":"isApprovedForAll","inputs":[{"name":"owner","type":"address","internalType":"address"},{"name":"operator","type":"address","internalType":"address"}],"outputs":[{"name":"","type":"bool","internalType":"bool"}],"stateMutability":"view"},{"type":"function","name":"metadata","inputs":[],"outputs":[{"name":"","type":"address","internalType":"contract IWellnessSoulboundMetadata"}],"stateMutability":"view"},{"type":"function","name":"mint","inputs":[{"name":"to","type":"address","internalType":"address"},{"name":"challengeCompletionId","type":"uint256","internalType":"uint256"}],"outputs":[],"stateMutability":"nonpayable"},{"type":"function","name":"mintReward","inputs":[{"name":"to","type":"address","internalType":"address"},{"name":"amount","type":"uint256","internalType":"uint256"},{"name":"challengeCompletionId","type":"uint256","internalType":"uint256"}],"outputs":[],"stateMutability":"nonpayable"},{"type":"function","name":"name","inputs":[],"outputs":[{"name":"","type":"string","internalType":"string"}],"stateMutability":"view"},{"type":"function","name":"ownerOf","inputs":[{"name":"tokenId","type":"uint256","internalType":"uint256"}],"outputs":[{"name":"","type":"address","internalType":"address"}],"stateMutability":"view"},{"type":"function","name":"renounceRole","inputs":[{"name":"role","type":"bytes32","internalType":"bytes32"},{"name":"callerConfirmation","type":"address","internalType":"address"}],"outputs":[],"stateMutability":"nonpayable"},{"type":"function","name":"revokeAdminRole","inputs":[{"name":"admin","type":"address","internalType":"address"}],"outputs":[],"stateMutability":"nonpayable"},{"type":"function","name":"revokeMinterRole","inputs":[{"name":"minter","type":"address","internalType":"address"}],"outputs":[],"stateMutability":"nonpayable"},{"type":"function","name":"revokeRole","inputs":[{"name":"role","type":"bytes32","internalType":"bytes32"},{"name":"account","type":"address","internalType":"address"}],"outputs":[],"stateMutability":"nonpayable"},{"type":"function","name":"safeTransferFrom","inputs":[{"name":"from","type":"address","internalType":"address"},{"name":"to","type":"address","internalType":"address"},{"name":"tokenId","type":"uint256","internalType":"uint256"}],"outputs":[],"stateMutability":"nonpayable"},{"type":"function","name":"safeTransferFrom","inputs":[{"name":"from","type":"address","internalType":"address"},{"name":"to","type":"address","internalType":"address"},{"name":"tokenId","type":"uint256","internalType":"uint256"},{"name":"data","type":"bytes","internalType":"bytes"}],"outputs":[],"stateMutability":"nonpayable"},{"type":"function","name":"setApprovalForAll","inputs":[{"name":"operator","type":"address","internalType":"address"},{"name":"approved","type":"bool","internalType":"bool"}],"outputs":[],"stateMutability":"nonpayable"},{"type":"function","name":"setMetadata","inputs":[{"name":"metadata_","type":"address","internalType":"contract IWellnessSoulboundMetadata"}],"outputs":[],"stateMutability":"nonpayable"},{"type":"function","name":"supportsInterface","inputs":[{"name":"interfaceId","type":"bytes4","internalType":"bytes4"}],"outputs":[{"name":"","type":"bool","internalType":"bool"}],"stateMutability":"view"},{"type":"function","name":"symbol","inputs":[],"outputs":[{"name":"","type":"string","internalType":"string"}],"stateMutability":"view"},{"type":"function","name":"tokenIdToTokenData","inputs":[{"name":"tokenId","type":"uint256","internalType":"uint256"}],"outputs":[{"name":"challengeCompletionId","type":"uint256","internalType":"uint256"}],"stateMutability":"view"},{"type":"function","name":"tokenURI","inputs":[{"name":"tokenId","type":"uint256","internalType":"uint256"}],"outputs":[{"name":"","type":"string","internalType":"string"}],"stateMutability":"view"},{"type":"function","name":"transferFrom","inputs":[{"name":"from","type":"address","internalType":"address"},{"name":"to","type":"address","internalType":"address"},{"name":"tokenId","type":"uint256","internalType":"uint256"}],"outputs":[],"stateMutability":"nonpayable"},{"type":"event","name":"Approval","inputs":[{"name":"owner","type":"address","indexed":true,"internalType":"address"},{"name":"approved","type":"address","indexed":true,"internalType":"address"},{"name":"tokenId","type":"uint256","indexed":true,"internalType":"uint256"}],"anonymous":false},{"type":"event","name":"ApprovalForAll","inputs":[{"name":"owner","type":"address","indexed":true,"internalType":"address"},{"name":"operator","type":"address","indexed":true,"internalType":"address"},{"name":"approved","type":"bool","indexed":false,"internalType":"bool"}],"anonymous":false},{"type":"event","name":"Minted","inputs":[{"name":"tokenId","type":"uint256","indexed":true,"internalType":"uint256"},{"name":"to","type":"address","indexed":true,"internalType":"address"},{"name":"challengeCompletionId","type":"uint256","indexed":true,"internalType":"uint256"}],"anonymous":false},{"type":"event","name":"RoleAdminChanged","inputs":[{"name":"role","type":"bytes32","indexed":true,"internalType":"bytes32"},{"name":"previousAdminRole","type":"bytes32","indexed":true,"internalType":"bytes32"},{"name":"newAdminRole","type":"bytes32","indexed":true,"internalType":"bytes32"}],"anonymous":false},{"type":"event","name":"RoleGranted","inputs":[{"name":"role","type":"bytes32","indexed":true,"internalType":"bytes32"},{"name":"account","type":"address","indexed":true,"internalType":"address"},{"name":"sender","type":"address","indexed":true,"internalType":"address"}],"anonymous":false},{"type":"event","name":"RoleRevoked","inputs":[{"name":"role","type":"bytes32","indexed":true,"internalType":"bytes32"},{"name":"account","type":"address","indexed":true,"internalType":"address"},{"name":"sender","type":"address","indexed":true,"internalType":"address"}],"anonymous":false},{"type":"event","name":"Transfer","inputs":[{"name":"from","type":"address","indexed":true,"internalType":"address"},{"name":"to","type":"address","indexed":true,"internalType":"address"},{"name":"tokenId","type":"uint256","indexed":true,"internalType":"uint256"}],"anonymous":false},{"type":"error","name":"AccessControlBadConfirmation","inputs":[]},{"type":"error","name":"AccessControlUnauthorizedAccount","inputs":[{"name":"account","type":"address","internalType":"address"},{"name":"neededRole","type":"bytes32","internalType":"bytes32"}]},{"type":"error","name":"AdminRoleRequired","inputs":[{"name":"account","type":"address","internalType":"address"}]},{"type":"error","name":"ERC721IncorrectOwner","inputs":[{"name":"sender","type":"address","internalType":"address"},{"name":"tokenId","type":"uint256","internalType":"uint256"},{"name":"owner","type":"address","internalType":"address"}]},{"type":"error","name":"ERC721InsufficientApproval","inputs":[{"name":"operator","type":"address","internalType":"address"},{"name":"tokenId","type":"uint256","internalType":"uint256"}]},{"type":"error","name":"ERC721InvalidApprover","inputs":[{"name":"approver","type":"address","internalType":"address"}]},{"type":"error","name":"ERC721InvalidOperator","inputs":[{"name":"operator","type":"address","internalType":"address"}]},{"type":"error","name":"ERC721InvalidOwner","inputs":[{"name":"owner","type":"address","internalType":"address"}]},{"type":"error","name":"ERC721InvalidReceiver","inputs":[{"name":"receiver","type":"address","internalType":"address"}]},{"type":"error","name":"ERC721InvalidSender","inputs":[{"name":"sender","type":"address","internalType":"address"}]},{"type":"error","name":"ERC721NonexistentToken","inputs":[{"name":"tokenId","type":"uint256","internalType":"uint256"}]},{"type":"error","name":"MinterRoleRequired","inputs":[{"name":"account","type":"address","internalType":"address"}]},{"type":"error","name":"SoulboundTokenNonTransferable","inputs":[]}],"bytecode":{"object":"0x608060405234801561000f575f5ffd5b5060405161261538038061261583398101604081905261002e91610247565b81815f61003b838261034d565b506001610048828261034d565b5061005791505f905084610060565b50505050610407565b5f8061006c8484610096565b9050801561008d575f84815260076020526040902061008b9084610141565b505b90505b92915050565b5f8281526006602090815260408083206001600160a01b038516845290915281205460ff1661013a575f8381526006602090815260408083206001600160a01b03861684529091529020805460ff191660011790556100f23390565b6001600160a01b0316826001600160a01b0316847f2f8788117e7eff1d82e926ec794901d17c78024a50270940304540a733656f0d60405160405180910390a4506001610090565b505f610090565b5f61008d836001600160a01b0384165f81815260018301602052604081205461013a57508154600181810184555f848152602080822090930184905584548482528286019093526040902091909155610090565b634e487b7160e01b5f52604160045260245ffd5b5f82601f8301126101b8575f5ffd5b81516001600160401b038111156101d1576101d1610195565b604051601f8201601f19908116603f011681016001600160401b03811182821017156101ff576101ff610195565b604052818152838201602001851015610216575f5ffd5b5f5b8281101561023457602081860181015183830182015201610218565b505f918101602001919091529392505050565b5f5f5f60608486031215610259575f5ffd5b83516001600160a01b038116811461026f575f5ffd5b60208501519093506001600160401b0381111561028a575f5ffd5b610296868287016101a9565b604086015190935090506001600160401b038111156102b3575f5ffd5b6102bf868287016101a9565b9150509250925092565b600181811c908216806102dd57607f821691505b6020821081036102fb57634e487b7160e01b5f52602260045260245ffd5b50919050565b601f82111561034857805f5260205f20601f840160051c810160208510156103265750805b601f840160051c820191505b81811015610345575f8155600101610332565b50505b505050565b81516001600160401b0381111561036657610366610195565b61037a8161037484546102c9565b84610301565b6020601f8211600181146103ac575f83156103955750848201515b5f19600385901b1c1916600184901b178455610345565b5f84815260208120601f198516915b828110156103db57878501518255602094850194600190920191016103bb565b50848210156103f857868401515f19600387901b60f8161c191681555b50505050600190811b01905550565b612201806104145f395ff3fe608060405234801561000f575f5ffd5b50600436106101e7575f3560e01c806370a0823111610109578063b88d4fde1161009e578063d53913931161006e578063d539139314610474578063d547741f1461049b578063e985e9c5146104ae578063f3cb8385146104e9575f5ffd5b8063b88d4fde14610428578063c634b78e1461043b578063c87b56dd1461044e578063ca15c87314610461575f5ffd5b80639a19c7b0116100d95780639a19c7b0146103db578063a217fddf146103ee578063a22cb465146103f5578063a3246ad314610408575f5ffd5b806370a08231146103755780639010d07c1461038857806391d148541461039b57806395d89b41146103d3575f5ffd5b80632f2ff15d1161017f57806340c10f191161014f57806340c10f191461032957806342842e0e1461033c5780636352211e1461034f57806369e2f0fb14610362575f5ffd5b80632f2ff15d146102dd57806336568abe146102f0578063392f37e9146103035780633dd1eb6114610316575f5ffd5b806313e26ecd116101ba57806313e26ecd146102685780631ba861d21461029557806323b872dd146102a8578063248a9ca3146102bb575f5ffd5b806301ffc9a7146101eb57806306fdde0314610213578063081812fc14610228578063095ea7b314610253575b5f5ffd5b6101fe6101f9366004611c91565b6104fc565b60405190151581526020015b60405180910390f35b61021b610567565b60405161020a9190611d17565b61023b610236366004611d29565b6105f6565b6040516001600160a01b03909116815260200161020a565b610266610261366004611d54565b61061d565b005b610287610276366004611d29565b600a6020525f908152604090205481565b60405190815260200161020a565b6102666102a3366004611d7e565b61062c565b6102666102b6366004611db0565b6106c7565b6102876102c9366004611d29565b5f9081526006602052604090206001015490565b6102666102eb366004611dee565b61077c565b6102666102fe366004611dee565b6107a0565b60095461023b906001600160a01b031681565b610266610324366004611e1c565b6107f1565b610266610337366004611d54565b61088f565b61026661034a366004611db0565b61097b565b61023b61035d366004611d29565b610995565b610266610370366004611e1c565b61099f565b610287610383366004611e1c565b610a3d565b61023b610396366004611e37565b610a9b565b6101fe6103a9366004611dee565b5f9182526006602090815260408084206001600160a01b0393909316845291905290205460ff1690565b61021b610ab9565b6102666103e9366004611e1c565b610ac8565b6102875f81565b610266610403366004611e57565b610b46565b61041b610416366004611d29565b610b51565b60405161020a9190611e87565b610266610436366004611eff565b610b6a565b610266610449366004611e1c565b610b82565b61021b61045c366004611d29565b610c00565b61028761046f366004611d29565b610c70565b6102877f9f2df0fed2c77648de5860a4cc508cd0818c85b8b8a1ab4ceeef8d981c8956a681565b6102666104a9366004611dee565b610c86565b6101fe6104bc36600461201d565b6001600160a01b039182165f90815260056020908152604080832093909416825291909152205460ff1690565b6102666104f7366004611e1c565b610caa565b5f61050682610d58565b80610515575061051582610e3a565b8061056157507fffffffff0000000000000000000000000000000000000000000000000000000082167f0f5a755100000000000000000000000000000000000000000000000000000000145b92915050565b60605f805461057590612049565b80601f01602080910402602001604051908101604052809291908181526020018280546105a190612049565b80156105ec5780601f106105c3576101008083540402835291602001916105ec565b820191905f5260205f20905b8154815290600101906020018083116105cf57829003601f168201915b5050505050905090565b5f61060082610e8f565b505f828152600460205260409020546001600160a01b0316610561565b610628828233610ee0565b5050565b335f8181527f3195c024b2ddd6d9b8f6c836aa52f67fe69376c8903d009b80229b3ce4425f51602052604090205460ff166106a4576040517fa2f5be5e0000000000000000000000000000000000000000000000000000000081526001600160a01b0390911660048201526024015b60405180910390fd5b505f5b828110156106c1576106b9848361088f565b6001016106a7565b50505050565b6001600160a01b038216610709576040517f64a0ae920000000000000000000000000000000000000000000000000000000081525f600482015260240161069b565b5f610715838333610eed565b9050836001600160a01b0316816001600160a01b0316146106c1576040517f64283d7b0000000000000000000000000000000000000000000000000000000081526001600160a01b038086166004830152602482018490528216604482015260640161069b565b5f8281526006602052604090206001015461079681610f50565b6106c18383610f5d565b6001600160a01b03811633146107e2576040517f6697b23200000000000000000000000000000000000000000000000000000000815260040160405180910390fd5b6107ec8282610f90565b505050565b335f8181527f54cdd369e4e8a8515e52ca72ec816c2101831ad1f18bf44102ed171459c9b4f8602052604090205460ff16610864576040517fbc9a28d40000000000000000000000000000000000000000000000000000000081526001600160a01b03909116600482015260240161069b565b506106287f9f2df0fed2c77648de5860a4cc508cd0818c85b8b8a1ab4ceeef8d981c8956a682610f5d565b335f8181527f3195c024b2ddd6d9b8f6c836aa52f67fe69376c8903d009b80229b3ce4425f51602052604090205460ff16610902576040517fa2f5be5e0000000000000000000000000000000000000000000000000000000081526001600160a01b03909116600482015260240161069b565b50600880549081905f610914836120c7565b91905055506109238382610fbb565b60408051602080820183528482525f848152600a9091528281209151909155905183916001600160a01b0386169184917fc9d0543a84d3510329c0783b91576878ceb484e8699944cb5610c3436b3b8e3991a4505050565b6107ec83838360405180602001604052805f815250610b6a565b5f61056182610e8f565b335f8181527f54cdd369e4e8a8515e52ca72ec816c2101831ad1f18bf44102ed171459c9b4f8602052604090205460ff16610a12576040517fbc9a28d40000000000000000000000000000000000000000000000000000000081526001600160a01b03909116600482015260240161069b565b506106287f9f2df0fed2c77648de5860a4cc508cd0818c85b8b8a1ab4ceeef8d981c8956a682610f90565b5f6001600160a01b038216610a80576040517f89c62b640000000000000000000000000000000000000000000000000000000081525f600482015260240161069b565b506001600160a01b03165f9081526003602052604090205490565b5f828152600760205260408120610ab29083610fd4565b9392505050565b60606001805461057590612049565b335f8181527f54cdd369e4e8a8515e52ca72ec816c2101831ad1f18bf44102ed171459c9b4f8602052604090205460ff16610b3b576040517fbc9a28d40000000000000000000000000000000000000000000000000000000081526001600160a01b03909116600482015260240161069b565b506106285f82610f90565b610628338383610fdf565b5f818152600760205260409020606090610561906110b4565b610b758484846106c7565b6106c133858585856110c0565b335f8181527f54cdd369e4e8a8515e52ca72ec816c2101831ad1f18bf44102ed171459c9b4f8602052604090205460ff16610bf5576040517fbc9a28d40000000000000000000000000000000000000000000000000000000081526001600160a01b03909116600482015260240161069b565b506106285f82610f5d565b6060610c0b82610e8f565b505f610c2160408051602081019091525f815290565b90505f815111610c3f5760405180602001604052805f815250610ab2565b80610c4984611282565b604051602001610c5a9291906120fe565b6040516020818303038152906040529392505050565b5f8181526007602052604081206105619061133e565b5f82815260066020526040902060010154610ca081610f50565b6106c18383610f90565b335f8181527f54cdd369e4e8a8515e52ca72ec816c2101831ad1f18bf44102ed171459c9b4f8602052604090205460ff16610d1d576040517fbc9a28d40000000000000000000000000000000000000000000000000000000081526001600160a01b03909116600482015260240161069b565b50600980547fffffffffffffffffffffffff0000000000000000000000000000000000000000166001600160a01b0392909216919091179055565b5f7fffffffff0000000000000000000000000000000000000000000000000000000082167f80ac58cd000000000000000000000000000000000000000000000000000000001480610dea57507fffffffff0000000000000000000000000000000000000000000000000000000082167f5b5e139f00000000000000000000000000000000000000000000000000000000145b8061056157507f01ffc9a7000000000000000000000000000000000000000000000000000000007fffffffff00000000000000000000000000000000000000000000000000000000831614610561565b5f7fffffffff0000000000000000000000000000000000000000000000000000000082167f5a05180f000000000000000000000000000000000000000000000000000000001480610561575061056182611347565b5f818152600260205260408120546001600160a01b031680610561576040517f7e2732890000000000000000000000000000000000000000000000000000000081526004810184905260240161069b565b6107ec838383600161139c565b5f828152600260205260408120546001600160a01b03168015610f3c576040517f216dcda700000000000000000000000000000000000000000000000000000000815260040160405180910390fd5b610f478585856114ef565b95945050505050565b610f5a8133611618565b50565b5f5f610f698484611685565b90508015610ab2575f848152600760205260409020610f88908461174e565b509392505050565b5f5f610f9c8484611762565b90508015610ab2575f848152600760205260409020610f889084611805565b610628828260405180602001604052805f815250611819565b5f610ab28383611830565b6001600160a01b03821661102a576040517f5b08ba180000000000000000000000000000000000000000000000000000000081526001600160a01b038316600482015260240161069b565b6001600160a01b038381165f8181526005602090815260408083209487168084529482529182902080547fffffffffffffffffffffffffffffffffffffffffffffffffffffffffffffff001686151590811790915591519182527f17307eab39ab6107e8899845ad3d59bd9653f200f220920489ca2b5937696c31910160405180910390a3505050565b60605f610ab283611856565b6001600160a01b0383163b1561127b576040517f150b7a020000000000000000000000000000000000000000000000000000000081526001600160a01b0384169063150b7a029061111b90889088908790879060040161212c565b6020604051808303815f875af1925050508015611173575060408051601f3d9081017fffffffffffffffffffffffffffffffffffffffffffffffffffffffffffffffe01682019092526111709181019061216c565b60015b6111f3573d8080156111a0576040519150601f19603f3d011682016040523d82523d5f602084013e6111a5565b606091505b5080515f036111eb576040517f64a0ae920000000000000000000000000000000000000000000000000000000081526001600160a01b038516600482015260240161069b565b805181602001fd5b7fffffffff0000000000000000000000000000000000000000000000000000000081167f150b7a020000000000000000000000000000000000000000000000000000000014611279576040517f64a0ae920000000000000000000000000000000000000000000000000000000081526001600160a01b038516600482015260240161069b565b505b5050505050565b60605f61128e836118af565b60010190505f8167ffffffffffffffff8111156112ad576112ad611ed2565b6040519080825280601f01601f1916602001820160405280156112d7576020820181803683370190505b5090508181016020015b7fffffffffffffffffffffffffffffffffffffffffffffffffffffffffffffffff017f3031323334353637383961626364656600000000000000000000000000000000600a86061a8153600a85049450846112e157509392505050565b5f610561825490565b5f7fffffffff0000000000000000000000000000000000000000000000000000000082167f7965db0b000000000000000000000000000000000000000000000000000000001480610561575061056182610d58565b80806113b057506001600160a01b03821615155b156114a8575f6113bf84610e8f565b90506001600160a01b038316158015906113eb5750826001600160a01b0316816001600160a01b031614155b801561141c57506001600160a01b038082165f9081526005602090815260408083209387168352929052205460ff16155b1561145e576040517fa9fbf51f0000000000000000000000000000000000000000000000000000000081526001600160a01b038416600482015260240161069b565b81156114a65783856001600160a01b0316826001600160a01b03167f8c5be1e5ebec7d5bd14f71427d1e84f3dd0314c0f7b2291e5b200ac8c7c3b92560405160405180910390a45b505b50505f90815260046020526040902080547fffffffffffffffffffffffff0000000000000000000000000000000000000000166001600160a01b0392909216919091179055565b5f828152600260205260408120546001600160a01b039081169083161561151b5761151b818486611990565b6001600160a01b03811615611574576115365f855f5f61139c565b6001600160a01b0381165f90815260036020526040902080547fffffffffffffffffffffffffffffffffffffffffffffffffffffffffffffffff0190555b6001600160a01b038516156115a2576001600160a01b0385165f908152600360205260409020805460010190555b5f8481526002602052604080822080547fffffffffffffffffffffffff0000000000000000000000000000000000000000166001600160a01b0389811691821790925591518793918516917fddf252ad1be2c89b69c2b068fc378daa952ba7f163c4a11628f55a4df523b3ef91a4949350505050565b5f8281526006602090815260408083206001600160a01b038516845290915290205460ff16610628576040517fe2517d3f0000000000000000000000000000000000000000000000000000000081526001600160a01b03821660048201526024810183905260440161069b565b5f8281526006602090815260408083206001600160a01b038516845290915281205460ff16611747575f8381526006602090815260408083206001600160a01b0386168452909152902080547fffffffffffffffffffffffffffffffffffffffffffffffffffffffffffffff001660011790556116ff3390565b6001600160a01b0316826001600160a01b0316847f2f8788117e7eff1d82e926ec794901d17c78024a50270940304540a733656f0d60405160405180910390a4506001610561565b505f610561565b5f610ab2836001600160a01b038416611a26565b5f8281526006602090815260408083206001600160a01b038516845290915281205460ff1615611747575f8381526006602090815260408083206001600160a01b038616808552925280832080547fffffffffffffffffffffffffffffffffffffffffffffffffffffffffffffff0016905551339286917ff6391f5c32d9c69d2a47ea670b442974b53935d1edc7fd64eb21e047a839171b9190a4506001610561565b5f610ab2836001600160a01b038416611a6b565b6118238383611b4e565b6107ec335f8585856110c0565b5f825f01828154811061184557611845612187565b905f5260205f200154905092915050565b6060815f018054806020026020016040519081016040528092919081815260200182805480156118a357602002820191905f5260205f20905b81548152602001906001019080831161188f575b50505050509050919050565b5f807a184f03e93ff9f4daa797ed6e38ed64bf6a1f01000000000000000083106118f7577a184f03e93ff9f4daa797ed6e38ed64bf6a1f010000000000000000830492506040015b6d04ee2d6d415b85acef81000000008310611923576d04ee2d6d415b85acef8100000000830492506020015b662386f26fc10000831061194157662386f26fc10000830492506010015b6305f5e1008310611959576305f5e100830492506008015b612710831061196d57612710830492506004015b6064831061197f576064830492506002015b600a83106105615760010192915050565b61199b838383611be1565b6107ec576001600160a01b0383166119e2576040517f7e2732890000000000000000000000000000000000000000000000000000000081526004810182905260240161069b565b6040517f177e802f0000000000000000000000000000000000000000000000000000000081526001600160a01b03831660048201526024810182905260440161069b565b5f81815260018301602052604081205461174757508154600181810184555f848152602080822090930184905584548482528286019093526040902091909155610561565b5f8181526001830160205260408120548015611b45575f611a8d6001836121b4565b85549091505f90611aa0906001906121b4565b9050808214611aff575f865f018281548110611abe57611abe612187565b905f5260205f200154905080875f018481548110611ade57611ade612187565b5f918252602080832090910192909255918252600188019052604090208390555b8554869080611b1057611b106121c7565b600190038181905f5260205f20015f90559055856001015f8681526020019081526020015f205f905560019350505050610561565b5f915050610561565b6001600160a01b038216611b90576040517f64a0ae920000000000000000000000000000000000000000000000000000000081525f600482015260240161069b565b5f611b9c83835f610eed565b90506001600160a01b038116156107ec576040517f73c6ac6e0000000000000000000000000000000000000000000000000000000081525f600482015260240161069b565b5f6001600160a01b03831615801590611c5c5750826001600160a01b0316846001600160a01b03161480611c3957506001600160a01b038085165f9081526005602090815260408083209387168352929052205460ff165b80611c5c57505f828152600460205260409020546001600160a01b038481169116145b949350505050565b7fffffffff0000000000000000000000000000000000000000000000000000000081168114610f5a575f5ffd5b5f60208284031215611ca1575f5ffd5b8135610ab281611c64565b5f5b83811015611cc6578181015183820152602001611cae565b50505f910152565b5f8151808452611ce5816020860160208601611cac565b601f017fffffffffffffffffffffffffffffffffffffffffffffffffffffffffffffffe0169290920160200192915050565b602081525f610ab26020830184611cce565b5f60208284031215611d39575f5ffd5b5035919050565b6001600160a01b0381168114610f5a575f5ffd5b5f5f60408385031215611d65575f5ffd5b8235611d7081611d40565b946020939093013593505050565b5f5f5f60608486031215611d90575f5ffd5b8335611d9b81611d40565b95602085013595506040909401359392505050565b5f5f5f60608486031215611dc2575f5ffd5b8335611dcd81611d40565b92506020840135611ddd81611d40565b929592945050506040919091013590565b5f5f60408385031215611dff575f5ffd5b823591506020830135611e1181611d40565b809150509250929050565b5f60208284031215611e2c575f5ffd5b8135610ab281611d40565b5f5f60408385031215611e48575f5ffd5b50508035926020909101359150565b5f5f60408385031215611e68575f5ffd5b8235611e7381611d40565b915060208301358015158114611e11575f5ffd5b602080825282518282018190525f918401906040840190835b81811015611ec75783516001600160a01b0316835260209384019390920191600101611ea0565b509095945050505050565b7f4e487b71000000000000000000000000000000000000000000000000000000005f52604160045260245ffd5b5f5f5f5f60808587031215611f12575f5ffd5b8435611f1d81611d40565b93506020850135611f2d81611d40565b925060408501359150606085013567ffffffffffffffff811115611f4f575f5ffd5b8501601f81018713611f5f575f5ffd5b803567ffffffffffffffff811115611f7957611f79611ed2565b6040517fffffffffffffffffffffffffffffffffffffffffffffffffffffffffffffffe0603f7fffffffffffffffffffffffffffffffffffffffffffffffffffffffffffffffe0601f8501160116810181811067ffffffffffffffff82111715611fe557611fe5611ed2565b604052818152828201602001891015611ffc575f5ffd5b816020840160208301375f6020838301015280935050505092959194509250565b5f5f6040838503121561202e575f5ffd5b823561203981611d40565b91506020830135611e1181611d40565b600181811c9082168061205d57607f821691505b602082108103612094577f4e487b71000000000000000000000000000000000000000000000000000000005f52602260045260245ffd5b50919050565b7f4e487b71000000000000000000000000000000000000000000000000000000005f52601160045260245ffd5b5f7fffffffffffffffffffffffffffffffffffffffffffffffffffffffffffffffff82036120f7576120f761209a565b5060010190565b5f835161210f818460208801611cac565b835190830190612123818360208801611cac565b01949350505050565b6001600160a01b03851681526001600160a01b0384166020820152826040820152608060608201525f6121626080830184611cce565b9695505050505050565b5f6020828403121561217c575f5ffd5b8151610ab281611c64565b7f4e487b71000000000000000000000000000000000000000000000000000000005f52603260045260245ffd5b818103818111156105615761056161209a565b7f4e487b71000000000000000000000000000000000000000000000000000000005f52603160045260245ffdfea164736f6c634300081c000a","linkReferences":{}},"methodIdentifiers":{"DEFAULT_ADMIN_ROLE()":"a217fddf","MINTER_ROLE()":"d5391393","approve(address,uint256)":"095ea7b3","balanceOf(address)":"70a08231","getApproved(uint256)":"081812fc","getRoleAdmin(bytes32)":"248a9ca3","getRoleMember(bytes32,uint256)":"9010d07c","getRoleMemberCount(bytes32)":"ca15c873","getRoleMembers(bytes32)":"a3246ad3","grantAdminRole(address)":"c634b78e","grantMinterRole(address)":"3dd1eb61","grantRole(bytes32,address)":"2f2ff15d","hasRole(bytes32,address)":"91d14854","isApprovedForAll(address,address)":"e985e9c5","metadata()":"392f37e9","mint(address,uint256)":"40c10f19","mintReward(address,uint256,uint256)":"1ba861d2","name()":"06fdde03","ownerOf(uint256)":"6352211e","renounceRole(bytes32,address)":"36568abe","revokeAdminRole(address)":"9a19c7b0","revokeMinterRole(address)":"69e2f0fb","revokeRole(bytes32,address)":"d547741f","safeTransferFrom(address,address,uint256)":"42842e0e","safeTransferFrom(address,address,uint256,bytes)":"b88d4fde","setApprovalForAll(address,bool)":"a22cb465","setMetadata(address)":"f3cb8385","supportsInterface(bytes4)":"01ffc9a7","symbol()":"95d89b41","tokenIdToTokenData(uint256)":"13e26ecd","tokenURI(uint256)":"c87b56dd","transferFrom(address,address,uint256)":"23b872dd"},"id":22}