{"abi":[{"type":"constructor","inputs":[{"name":"initialOwner","type":"address","internalType":"address"},{"name":"wellnessHomeAddress","type":"address","internalType":"address"}],"stateMutability":"nonpayable"},{"type":"function","name":"CHALLENGE_COMPLETION_VALIDATOR_ROLE","inputs":[],"outputs":[{"name":"","type":"bytes32","internalType":"bytes32"}],"stateMutability":"view"},{"type":"function","name":"CHALLENGE_REWARD_STRATEGY_ROLE","inputs":[],"outputs":[{"name":"","type":"bytes32","internalType":"bytes32"}],"stateMutability":"view"},{"type":"function","name":"DEFAULT_ADMIN_ROLE","inputs":[],"outputs":[{"name":"","type":"bytes32","internalType":"bytes32"}],"stateMutability":"view"},{"type":"function","name":"cancelChallenge","inputs":[{"name":"challengeId","type":"uint256","internalType":"uint256"}],"outputs":[],"stateMutability":"nonpayable"},{"type":"function","name":"challengeCompletionExists","inputs":[{"name":"challengeCompletionId","type":"uint256","internalType":"uint256"}],"outputs":[{"name":"","type":"bool","internalType":"bool"}],"stateMutability":"view"},{"type":"function","name":"challengeCompletionIdCounter","inputs":[],"outputs":[{"name":"","type":"uint256","internalType":"uint256"}],"stateMutability":"view"},{"type":"function","name":"challengeExists","inputs":[{"name":"challengeId","type":"uint256","internalType":"uint256"}],"outputs":[{"name":"","type":"bool","internalType":"bool"}],"stateMutability":"view"},{"type":"function","name":"challengeIdCounter","inputs":[],"outputs":[{"name":"","type":"uint256","internalType":"uint256"}],"stateMutability":"view"},{"type":"function","name":"challengeRewardStrategy","inputs":[],"outputs":[{"name":"","type":"address","internalType":"contract IChallengeRewardStrategy"}],"stateMutability":"view"},{"type":"function","name":"evaluateChallengeCompletion","inputs":[{"name":"challengeCompletionId","type":"uint256","internalType":"uint256"},{"name":"approved","type":"bool","internalType":"bool"}],"outputs":[],"stateMutability":"nonpayable"},{"type":"function","name":"getApprovedChallengeCompletionsByChallenge","inputs":[{"name":"challengeId","type":"uint256","internalType":"uint256"}],"outputs":[{"name":"challengeCompletionIds","type":"uint256[]","internalType":"uint256[]"}],"stateMutability":"view"},{"type":"function","name":"getChallenge","inputs":[{"name":"challengeId","type":"uint256","internalType":"uint256"}],"outputs":[{"name":"","type":"tuple","internalType":"struct Challenge","components":[{"name":"id","type":"uint256","internalType":"uint256"},{"name":"submitter","type":"address","internalType":"address"},{"name":"soulboundToken","type":"address","internalType":"address"},{"name":"theme","type":"uint8","internalType":"enum ChallengeTheme"},{"name":"title","type":"string","internalType":"string"},{"name":"description","type":"string","internalType":"string"},{"name":"target","type":"string","internalType":"string"},{"name":"tokenRewardAmount","type":"uint256","internalType":"uint256"},{"name":"duration","type":"uint256","internalType":"uint256"},{"name":"startTime","type":"uint256","internalType":"uint256"},{"name":"maxWinners","type":"uint256","internalType":"uint256"},{"name":"state","type":"uint8","internalType":"enum ChallengeState"}]}],"stateMutability":"view"},{"type":"function","name":"getChallengeByCompletion","inputs":[{"name":"challengeCompletionId","type":"uint256","internalType":"uint256"}],"outputs":[{"name":"","type":"tuple","internalType":"struct Challenge","components":[{"name":"id","type":"uint256","internalType":"uint256"},{"name":"submitter","type":"address","internalType":"address"},{"name":"soulboundToken","type":"address","internalType":"address"},{"name":"theme","type":"uint8","internalType":"enum ChallengeTheme"},{"name":"title","type":"string","internalType":"string"},{"name":"description","type":"string","internalType":"string"},{"name":"target","type":"string","internalType":"string"},{"name":"tokenRewardAmount","type":"uint256","internalType":"uint256"},{"name":"duration","type":"uint256","internalType":"uint256"},{"name":"startTime","type":"uint256","internalType":"uint256"},{"name":"maxWinners","type":"uint256","internalType":"uint256"},{"name":"state","type":"uint8","internalType":"enum ChallengeState"}]}],"stateMutability":"view"},{"type":"function","name":"getChallengeCompletion","inputs":[{"name":"challengeCompletionId","type":"uint256","internalType":"uint256"}],"outputs":[{"name":"","type":"tuple","internalType":"struct ChallengeCompletion","components":[{"name":"id","type":"uint256","internalType":"uint256"},{"name":"submitter","type":"address","internalType":"address"},{"name":"challengeId","type":"uint256","internalType":"uint256"},{"name":"data","type":"bytes","internalType":"bytes"},{"name":"status","type":"uint8","internalType":"enum ChallengeCompletionStatus"},{"name":"rewarded","type":"bool","internalType":"bool"},{"name":"evaluationTime","type":"uint256","internalType":"uint256"}]}],"stateMutability":"view"},{"type":"function","name":"getChallengeCompletionsByChallenge","inputs":[{"name":"challengeId","type":"uint256","internalType":"uint256"}],"outputs":[{"name":"challengeCompletionIds","type":"uint256[]","internalType":"uint256[]"}],"stateMutability":"view"},{"type":"function","name":"getRoleAdmin","inputs":[{"name":"role","type":"bytes32","internalType":"bytes32"}],"outputs":[{"name":"","type":"bytes32","internalType":"bytes32"}],"stateMutability":"view"},{"type":"function","name":"getRoleMember","inputs":[{"name":"role","type":"bytes32","internalType":"bytes32"},{"name":"index","type":"uint256","internalType":"uint256"}],"outputs":[{"name":"","type":"address","internalType":"address"}],"stateMutability":"view"},{"type":"function","name":"getRoleMemberCount","inputs":[{"name":"role","type":"bytes32","internalType":"bytes32"}],"outputs":[{"name":"","type":"uint256","internalType":"uint256"}],"stateMutability":"view"},{"type":"function","name":"getRoleMembers","inputs":[{"name":"role","type":"bytes32","internalType":"bytes32"}],"outputs":[{"name":"","type":"address[]","internalType":"address[]"}],"stateMutability":"view"},{"type":"function","name":"getUserChallengeCompletions","inputs":[{"name":"user","type":"address","internalType":"address"}],"outputs":[{"name":"challengeCompletionIds","type":"uint256[]","internalType":"uint256[]"}],"stateMutability":"view"},{"type":"function","name":"grantChallengeCompletionValidatorRole","inputs":[{"name":"challengeCompletionValidator","type":"address","internalType":"contract IChallengeCompletionValidationStrategy"}],"outputs":[],"stateMutability":"nonpayable"},{"type":"function","name":"grantChallengeRewardStrategyRole","inputs":[{"name":"challengeRewardStrategy_","type":"address","internalType":"contract IChallengeRewardStrategy"}],"outputs":[],"stateMutability":"nonpayable"},{"type":"function","name":"grantDefaultAdminRole","inputs":[{"name":"defaultAdmin","type":"address","internalType":"address"}],"outputs":[],"stateMutability":"nonpayable"},{"type":"function","name":"grantRole","inputs":[{"name":"role","type":"bytes32","internalType":"bytes32"},{"name":"account","type":"address","internalType":"address"}],"outputs":[],"stateMutability":"nonpayable"},{"type":"function","name":"hasAdminRole","inputs":[{"name":"admin","type":"address","internalType":"address"}],"outputs":[{"name":"","type":"bool","internalType":"bool"}],"stateMutability":"view"},{"type":"function","name":"hasChallengeCompletionValidatorRole","inputs":[{"name":"challengeCompletionValidator","type":"address","internalType":"contract IChallengeCompletionValidationStrategy"}],"outputs":[{"name":"","type":"bool","internalType":"bool"}],"stateMutability":"view"},{"type":"function","name":"hasChallengeRewardStrategyRole","inputs":[{"name":"challengeRewardStrategy_","type":"address","internalType":"address"}],"outputs":[{"name":"","type":"bool","internalType":"bool"}],"stateMutability":"view"},{"type":"function","name":"hasPendingReward","inputs":[{"name":"challengeCompletionId","type":"uint256","internalType":"uint256"}],"outputs":[{"name":"","type":"bool","internalType":"bool"}],"stateMutability":"view"},{"type":"function","name":"hasRole","inputs":[{"name":"role","type":"bytes32","internalType":"bytes32"},{"name":"account","type":"address","internalType":"address"}],"outputs":[{"name":"","type":"bool","internalType":"bool"}],"stateMutability":"view"},{"type":"function","name":"isChallengeCompletionApproved","inputs":[{"name":"challengeCompletionId","type":"uint256","internalType":"uint256"}],"outputs":[{"name":"","type":"bool","internalType":"bool"}],"stateMutability":"view"},{"type":"function","name":"maximumChallengeDuration","inputs":[],"outputs":[{"name":"","type":"uint256","internalType":"uint256"}],"stateMutability":"view"},{"type":"function","name":"minimumChallengeDuration","inputs":[],"outputs":[{"name":"","type":"uint256","internalType":"uint256"}],"stateMutability":"view"},{"type":"function","name":"renounceRole","inputs":[{"name":"role","type":"bytes32","internalType":"bytes32"},{"name":"callerConfirmation","type":"address","internalType":"address"}],"outputs":[],"stateMutability":"nonpayable"},{"type":"function","name":"revokeChallengeCompletionValidatorRole","inputs":[{"name":"challengeCompletionValidator","type":"address","internalType":"contract IChallengeCompletionValidationStrategy"}],"outputs":[],"stateMutability":"nonpayable"},{"type":"function","name":"revokeChallengeRewardStrategyRole","inputs":[{"name":"challengeRewardStrategy_","type":"address","internalType":"contract IChallengeRewardStrategy"}],"outputs":[],"stateMutability":"nonpayable"},{"type":"function","name":"revokeDefaultAdminRole","inputs":[{"name":"defaultAdmin","type":"address","internalType":"address"}],"outputs":[],"stateMutability":"nonpayable"},{"type":"function","name":"revokeRole","inputs":[{"name":"role","type":"bytes32","internalType":"bytes32"},{"name":"account","type":"address","internalType":"address"}],"outputs":[],"stateMutability":"nonpayable"},{"type":"function","name":"setChallengeRewardStrategy","inputs":[{"name":"challengeRewardStrategyAddress","type":"address","internalType":"address"}],"outputs":[],"stateMutability":"nonpayable"},{"type":"function","name":"setWellnessHome","inputs":[{"name":"wellnessHomeAddress","type":"address","internalType":"address"}],"outputs":[],"stateMutability":"nonpayable"},{"type":"function","name":"startChallenge","inputs":[{"name":"challengeId","type":"uint256","internalType":"uint256"}],"outputs":[],"stateMutability":"nonpayable"},{"type":"function","name":"submitChallenge","inputs":[{"name":"challenge","type":"tuple","internalType":"struct Challenge","components":[{"name":"id","type":"uint256","internalType":"uint256"},{"name":"submitter","type":"address","internalType":"address"},{"name":"soulboundToken","type":"address","internalType":"address"},{"name":"theme","type":"uint8","internalType":"enum ChallengeTheme"},{"name":"title","type":"string","internalType":"string"},{"name":"description","type":"string","internalType":"string"},{"name":"target","type":"string","internalType":"string"},{"name":"tokenRewardAmount","type":"uint256","internalType":"uint256"},{"name":"duration","type":"uint256","internalType":"uint256"},{"name":"startTime","type":"uint256","internalType":"uint256"},{"name":"maxWinners","type":"uint256","internalType":"uint256"},{"name":"state","type":"uint8","internalType":"enum ChallengeState"}]}],"outputs":[],"stateMutability":"nonpayable"},{"type":"function","name":"submitChallengeCompletion","inputs":[{"name":"completion","type":"tuple","internalType":"struct ChallengeCompletion","components":[{"name":"id","type":"uint256","internalType":"uint256"},{"name":"submitter","type":"address","internalType":"address"},{"name":"challengeId","type":"uint256","internalType":"uint256"},{"name":"data","type":"bytes","internalType":"bytes"},{"name":"status","type":"uint8","internalType":"enum ChallengeCompletionStatus"},{"name":"rewarded","type":"bool","internalType":"bool"},{"name":"evaluationTime","type":"uint256","internalType":"uint256"}]}],"outputs":[],"stateMutability":"nonpayable"},{"type":"function","name":"supportsInterface","inputs":[{"name":"interfaceId","type":"bytes4","internalType":"bytes4"}],"outputs":[{"name":"","type":"bool","internalType":"bool"}],"stateMutability":"view"},{"type":"function","name":"updateRewardStateAsClaimed","inputs":[{"name":"challengeCompletionId","type":"uint256","internalType":"uint256"}],"outputs":[],"stateMutability":"nonpayable"},{"type":"function","name":"wellnessHome","inputs":[],"outputs":[{"name":"","type":"address","internalType":"contract IWellnessHome"}],"stateMutability":"view"},{"type":"event","name":"ChallengeCancelled","inputs":[{"name":"challengeId","type":"uint256","indexed":true,"internalType":"uint256"},{"name":"cancelTime","type":"uint256","indexed":true,"internalType":"uint256"}],"anonymous":false},{"type":"event","name":"ChallengeCompletionEvaluated","inputs":[{"name":"challengeCompletionId","type":"uint256","indexed":true,"internalType":"uint256"},{"name":"challengeId","type":"uint256","indexed":true,"internalType":"uint256"},{"name":"submitter","type":"address","indexed":true,"internalType":"address"},{"name":"challengeCompletion","type":"tuple","indexed":false,"internalType":"struct ChallengeCompletion","components":[{"name":"id","type":"uint256","internalType":"uint256"},{"name":"submitter","type":"address","internalType":"address"},{"name":"challengeId","type":"uint256","internalType":"uint256"},{"name":"data","type":"bytes","internalType":"bytes"},{"name":"status","type":"uint8","internalType":"enum ChallengeCompletionStatus"},{"name":"rewarded","type":"bool","internalType":"bool"},{"name":"evaluationTime","type":"uint256","internalType":"uint256"}]}],"anonymous":false},{"type":"event","name":"ChallengeCompletionSubmitted","inputs":[{"name":"challengeCompletionId","type":"uint256","indexed":true,"internalType":"uint256"},{"name":"challengeId","type":"uint256","indexed":true,"internalType":"uint256"},{"name":"submitter","type":"address","indexed":true,"internalType":"address"},{"name":"challengeCompletion","type":"tuple","indexed":false,"internalType":"struct ChallengeCompletion","components":[{"name":"id","type":"uint256","internalType":"uint256"},{"name":"submitter","type":"address","internalType":"address"},{"name":"challengeId","type":"uint256","internalType":"uint256"},{"name":"data","type":"bytes","internalType":"bytes"},{"name":"status","type":"uint8","internalType":"enum ChallengeCompletionStatus"},{"name":"rewarded","type":"bool","internalType":"bool"},{"name":"evaluationTime","type":"uint256","internalType":"uint256"}]}],"anonymous":false},{"type":"event","name":"ChallengeStarted","inputs":[{"name":"challengeId","type":"uint256","indexed":true,"internalType":"uint256"},{"name":"startTime","type":"uint256","indexed":true,"internalType":"uint256"}],"anonymous":false},{"type":"event","name":"ChallengeSubmitted","inputs":[{"name":"challengeId","type":"uint256","indexed":true,"internalType":"uint256"},{"name":"submitter","type":"address","indexed":true,"internalType":"address"},{"name":"theme","type":"uint8","indexed":true,"internalType":"enum ChallengeTheme"},{"name":"challenge","type":"tuple","indexed":false,"internalType":"struct Challenge","components":[{"name":"id","type":"uint256","internalType":"uint256"},{"name":"submitter","type":"address","internalType":"address"},{"name":"soulboundToken","type":"address","internalType":"address"},{"name":"theme","type":"uint8","internalType":"enum ChallengeTheme"},{"name":"title","type":"string","internalType":"string"},{"name":"description","type":"string","internalType":"string"},{"name":"target","type":"string","internalType":"string"},{"name":"tokenRewardAmount","type":"uint256","internalType":"uint256"},{"name":"duration","type":"uint256","internalType":"uint256"},{"name":"startTime","type":"uint256","internalType":"uint256"},{"name":"maxWinners","type":"uint256","internalType":"uint256"},{"name":"state","type":"uint8","internalType":"enum ChallengeState"}]}],"anonymous":false},{"type":"event","name":"RoleAdminChanged","inputs":[{"name":"role","type":"bytes32","indexed":true,"internalType":"bytes32"},{"name":"previousAdminRole","type":"bytes32","indexed":true,"internalType":"bytes32"},{"name":"newAdminRole","type":"bytes32","indexed":true,"internalType":"bytes32"}],"anonymous":false},{"type":"event","name":"RoleGranted","inputs":[{"name":"role","type":"bytes32","indexed":true,"internalType":"bytes32"},{"name":"account","type":"address","indexed":true,"internalType":"address"},{"name":"sender","type":"address","indexed":true,"internalType":"address"}],"anonymous":false},{"type":"event","name":"RoleRevoked","inputs":[{"name":"role","type":"bytes32","indexed":true,"internalType":"bytes32"},{"name":"account","type":"address","indexed":true,"internalType":"address"},{"name":"sender","type":"address","indexed":true,"internalType":"address"}],"anonymous":false},{"type":"error","name":"AccessControlBadConfirmation","inputs":[]},{"type":"error","name":"AccessControlUnauthorizedAccount","inputs":[{"name":"account","type":"address","internalType":"address"},{"name":"neededRole","type":"bytes32","internalType":"bytes32"}]},{"type":"error","name":"AdminRoleRequired","inputs":[{"name":"account","type":"address","internalType":"address"}]},{"type":"error","name":"ChallengeCompletionAlreadyEvaluated","inputs":[{"name":"challengeCompletionId","type":"uint256","internalType":"uint256"}]},{"type":"error","name":"ChallengeCompletionAlreadySubmitted","inputs":[{"name":"challengeId","type":"uint256","internalType":"uint256"},{"name":"user","type":"address","internalType":"address"}]},{"type":"error","name":"ChallengeCompletionValidatorRoleRequired","inputs":[{"name":"account","type":"address","internalType":"address"}]},{"type":"error","name":"ChallengeMaxWinnersReached","inputs":[{"name":"challengeId","type":"uint256","internalType":"uint256"},{"name":"maxWinners","type":"uint256","internalType":"uint256"}]},{"type":"error","name":"ChallengeRewardStrategyRoleRequired","inputs":[{"name":"account","type":"address","internalType":"address"}]},{"type":"error","name":"ExpectedPendingChallenge","inputs":[{"name":"challengeId","type":"uint256","internalType":"uint256"},{"name":"currentState","type":"uint8","internalType":"enum ChallengeState"}]},{"type":"error","name":"ExpectedStartedChallenge","inputs":[{"name":"challengeId","type":"uint256","internalType":"uint256"}]},{"type":"error","name":"InvalidChallengeSubmitter","inputs":[{"name":"challengeId","type":"uint256","internalType":"uint256"},{"name":"submitter","type":"address","internalType":"address"}]},{"type":"error","name":"InvalidInputChallenge","inputs":[{"name":"message","type":"string","internalType":"string"}]},{"type":"error","name":"InvalidInputChallengeCompletion","inputs":[{"name":"message","type":"string","internalType":"string"}]},{"type":"error","name":"InvalidPartner","inputs":[{"name":"invalidPartner","type":"address","internalType":"address"}]},{"type":"error","name":"InvalidUser","inputs":[{"name":"invalidUser","type":"address","internalType":"address"}]},{"type":"error","name":"NonExistingChallenge","inputs":[{"name":"challengeId","type":"uint256","internalType":"uint256"}]},{"type":"error","name":"NonExistingChallengeCompletion","inputs":[{"name":"challengeCompletionId","type":"uint256","internalType":"uint256"}]}],"bytecode":{"object":"0x608060405234801561000f575f5ffd5b506040516140f93803806140f983398101604081905261002e916101c3565b6100385f83610077565b506001600281905560035562015180600455620d2f00600555600680546001600160a01b0319166001600160a01b0392909216919091179055506101f4565b5f8061008384846100ad565b905080156100a4575f8481526001602052604090206100a29084610154565b505b90505b92915050565b5f828152602081815260408083206001600160a01b038516845290915281205460ff1661014d575f838152602081815260408083206001600160a01b03861684529091529020805460ff191660011790556101053390565b6001600160a01b0316826001600160a01b0316847f2f8788117e7eff1d82e926ec794901d17c78024a50270940304540a733656f0d60405160405180910390a45060016100a7565b505f6100a7565b5f6100a4836001600160a01b0384165f81815260018301602052604081205461014d57508154600181810184555f8481526020808220909301849055845484825282860190935260409020919091556100a7565b80516001600160a01b03811681146101be575f5ffd5b919050565b5f5f604083850312156101d4575f5ffd5b6101dd836101a8565b91506101eb602084016101a8565b90509250929050565b613ef8806102015f395ff3fe608060405234801561000f575f5ffd5b50600436106102ee575f3560e01c806392f3809f11610192578063bb8124e6116100e8578063cf7743ae11610093578063ed162c241161006e578063ed162c24146106a7578063f136a4dc146106ba578063ff8911c3146106cd575f5ffd5b8063cf7743ae1461065a578063d547741f14610681578063e5350f9114610694575f5ffd5b8063c29ce65a116100c3578063c29ce65a1461062b578063c395fcb314610634578063ca15c87314610647575f5ffd5b8063bb8124e6146105f2578063bcb8e0cf14610605578063bdea34ad14610618575f5ffd5b8063a778b82011610148578063b51529dc11610123578063b51529dc146105c3578063b8ef5334146105cc578063bac432bb146105df575f5ffd5b8063a778b82014610594578063a95a0e26146105a7578063ab854a39146105ba575f5ffd5b8063a3246ad311610178578063a3246ad31461053a578063a41483e31461055a578063a44f79621461056d575f5ffd5b806392f3809f14610520578063a217fddf14610533575f5ffd5b806351ba96ad11610247578063660de86c116101fd5780636ad4e87a116101d85780636ad4e87a146104c45780639010d07c146104d757806391d14854146104ea575f5ffd5b8063660de86c146104735780636686642f146104865780636946c18b146104b1575f5ffd5b80635773172d1161022d5780635773172d1461042d5780635bbf4611146104405780635cac28a514610460575f5ffd5b806351ba96ad146103fa5780635658d0ca1461041a575f5ffd5b80632165a2f3116102a757806336568abe1161028257806336568abe146103cb57806346554719146103de5780634adf3051146103f1575f5ffd5b80632165a2f314610375578063248a9ca3146103885780632f2ff15d146103b8575f5ffd5b80630bd2e885116102d75780630bd2e8851461032f5780631281f1701461034f5780631bdd4b7414610362575f5ffd5b806301ffc9a7146102f25780630a61744e1461031a575b5f5ffd5b6103056103003660046132d8565b6106e0565b60405190151581526020015b60405180910390f35b61032d61032836600461333b565b61073b565b005b61034261033d366004613356565b6107ee565b6040516103119190613414565b61030561035d366004613356565b610aea565b610342610370366004613356565b610b0a565b61032d61038336600461333b565b610b72565b6103aa610396366004613356565b5f9081526020819052604090206001015490565b604051908152602001610311565b61032d6103c63660046134ff565b610c20565b61032d6103d93660046134ff565b610c4a565b6103056103ec366004613356565b610c9b565b6103aa60025481565b61040d61040836600461333b565b610cbb565b604051610311919061352d565b61040d610428366004613356565b610db0565b61032d61043b36600461333b565b610e17565b61045361044e366004613356565b610e99565b604051610311919061356f565b61032d61046e36600461333b565b611040565b61032d610481366004613356565b6110de565b600754610499906001600160a01b031681565b6040516001600160a01b039091168152602001610311565b61032d6104bf36600461333b565b6111d5565b61032d6104d2366004613356565b611273565b6104996104e53660046135e9565b61164b565b6103056104f83660046134ff565b5f918252602082815260408084206001600160a01b0393909316845291905290205460ff1690565b61030561052e366004613356565b611662565b6103aa5f81565b61054d610548366004613356565b6116d9565b6040516103119190613609565b61032d610568366004613356565b6116f2565b6103aa7f6319d7a512d7e2acbbadd8e8067725021499645ee69754ff27a2e056b6f3adc681565b6103056105a2366004613356565b61189e565b600654610499906001600160a01b031681565b6103aa60045481565b6103aa60035481565b6103056105da36600461333b565b61192d565b61032d6105ed3660046137ae565b61196c565b61040d610600366004613356565b611ed5565b61032d61061336600461333b565b611f3c565b61032d61062636600461333b565b611fda565b6103aa60055481565b61030561064236600461333b565b612078565b6103aa610655366004613356565b6120b7565b6103aa7ff2cc4b594397b9e9b97898bf3a692fa7ef7c9aaa52789fa8a78f56e99227503c81565b61032d61068f3660046134ff565b6120cd565b61032d6106a236600461333b565b6120f1565b61032d6106b5366004613904565b61216f565b6103056106c836600461333b565b6127a5565b61032d6106db3660046139c3565b6127e4565b5f7fffffffff0000000000000000000000000000000000000000000000000000000082167f5a05180f000000000000000000000000000000000000000000000000000000001480610735575061073582612a40565b92915050565b335f8181527fad3228b676f7d3cd4284a5443f17f1962b36e491b30a40b2405849e597ba5fb5602052604090205460ff166107b3576040517fbc9a28d40000000000000000000000000000000000000000000000000000000081526001600160a01b0390911660048201526024015b60405180910390fd5b50600780547fffffffffffffffffffffffff0000000000000000000000000000000000000000166001600160a01b0392909216919091179055565b6107f661326d565b8161080081610aea565b819061083b576040517fbb7040000000000000000000000000000000000000000000000000000000000081526004016107aa91815260200190565b505f838152600b60209081526040808320600201548352600890915290205b6040805161018081018252825481526001808401546001600160a01b03908116602084015260028501549081169383019390935290929160608401917401000000000000000000000000000000000000000090910460ff16908111156108c2576108c261336d565b60018111156108d3576108d361336d565b81526020016003820180546108e7906139e6565b80601f0160208091040260200160405190810160405280929190818152602001828054610913906139e6565b801561095e5780601f106109355761010080835404028352916020019161095e565b820191905f5260205f20905b81548152906001019060200180831161094157829003601f168201915b50505050508152602001600482018054610977906139e6565b80601f01602080910402602001604051908101604052809291908181526020018280546109a3906139e6565b80156109ee5780601f106109c5576101008083540402835291602001916109ee565b820191905f5260205f20905b8154815290600101906020018083116109d157829003601f168201915b50505050508152602001600582018054610a07906139e6565b80601f0160208091040260200160405190810160405280929190818152602001828054610a33906139e6565b8015610a7e5780601f10610a5557610100808354040283529160200191610a7e565b820191905f5260205f20905b815481529060010190602001808311610a6157829003601f168201915b505050918352505060068201546020820152600782015460408201526008820154606082015260098201546080820152600a82015460a09091019060ff166002811115610acd57610acd61336d565b6002811115610ade57610ade61336d565b90525091505b50919050565b5f811580159061073557505f828152600b60205260409020541515610735565b610b1261326d565b5f82815260086020526040902054829015158190610b5f576040517f6346fc320000000000000000000000000000000000000000000000000000000081526004016107aa91815260200190565b505f83815260086020526040902061085a565b335f8181527fad3228b676f7d3cd4284a5443f17f1962b36e491b30a40b2405849e597ba5fb5602052604090205460ff16610be5576040517fbc9a28d40000000000000000000000000000000000000000000000000000000081526001600160a01b0390911660048201526024016107aa565b50600680547fffffffffffffffffffffffff0000000000000000000000000000000000000000166001600160a01b0392909216919091179055565b5f82815260208190526040902060010154610c3a81612ad6565b610c448383612ae3565b50505050565b6001600160a01b0381163314610c8c576040517f6697b23200000000000000000000000000000000000000000000000000000000815260040160405180910390fd5b610c968282612b16565b505050565b5f811580159061073557505f828152600860205260409020541515610735565b6006546040517f4209fff10000000000000000000000000000000000000000000000000000000081526001600160a01b0380841660048301526060928492911690634209fff190602401602060405180830381865afa158015610d20573d5f5f3e3d5ffd5b505050506040513d601f19601f82011682018060405250810190610d449190613a31565b8190610d88576040517fba1b16ec0000000000000000000000000000000000000000000000000000000081526001600160a01b0390911660048201526024016107aa565b506001600160a01b0383165f908152600f60205260409020610da990612b41565b9392505050565b5f81815260086020526040902054606090829015158190610e00576040517f6346fc320000000000000000000000000000000000000000000000000000000081526004016107aa91815260200190565b505f838152600e60205260409020610da990612b41565b335f8181527fad3228b676f7d3cd4284a5443f17f1962b36e491b30a40b2405849e597ba5fb5602052604090205460ff16610e8a576040517fbc9a28d40000000000000000000000000000000000000000000000000000000081526001600160a01b0390911660048201526024016107aa565b50610e955f82612b16565b5050565b6040805160e0810182525f808252602082018190529181018290526060808201526080810182905260a0810182905260c081019190915281610eda81610aea565b8190610f15576040517fbb7040000000000000000000000000000000000000000000000000000000000081526004016107aa91815260200190565b505f838152600b602052604090206040805160e0810182528254815260018301546001600160a01b03166020820152600283015491810191909152600382018054919291606084019190610f68906139e6565b80601f0160208091040260200160405190810160405280929190818152602001828054610f94906139e6565b8015610fdf5780601f10610fb657610100808354040283529160200191610fdf565b820191905f5260205f20905b815481529060010190602001808311610fc257829003601f168201915b5050509183525050600482015460209091019060ff1660028111156110065761100661336d565b60028111156110175761101761336d565b81526004820154610100900460ff16151560208201526005909101546040909101529392505050565b335f8181527fad3228b676f7d3cd4284a5443f17f1962b36e491b30a40b2405849e597ba5fb5602052604090205460ff166110b3576040517fbc9a28d40000000000000000000000000000000000000000000000000000000081526001600160a01b0390911660048201526024016107aa565b50610e957f6319d7a512d7e2acbbadd8e8067725021499645ee69754ff27a2e056b6f3adc682612ae3565b335f8181527f8998ba14d5c3c37a83a6ced4904ad6eb0639c81f6e2dad230432850fb460bb1b602052604090205460ff16611151576040517f1e5441ed0000000000000000000000000000000000000000000000000000000081526001600160a01b0390911660048201526024016107aa565b508061115c81610aea565b8190611197576040517fbb7040000000000000000000000000000000000000000000000000000000000081526004016107aa91815260200190565b50505f908152600b6020526040902060040180547fffffffffffffffffffffffffffffffffffffffffffffffffffffffffffff00ff16610100179055565b335f8181527fad3228b676f7d3cd4284a5443f17f1962b36e491b30a40b2405849e597ba5fb5602052604090205460ff16611248576040517fbc9a28d40000000000000000000000000000000000000000000000000000000081526001600160a01b0390911660048201526024016107aa565b50610e957f6319d7a512d7e2acbbadd8e8067725021499645ee69754ff27a2e056b6f3adc682612b16565b5f818152600860205260409020548190151581906112c0576040517f6346fc320000000000000000000000000000000000000000000000000000000081526004016107aa91815260200190565b505f8281526008602052604081208391906040805161018081018252825481526001808401546001600160a01b0390811660208401526002850154908116938301939093529293506115649290918491606084019174010000000000000000000000000000000000000000900460ff16908111156113405761134061336d565b60018111156113515761135161336d565b8152602001600382018054611365906139e6565b80601f0160208091040260200160405190810160405280929190818152602001828054611391906139e6565b80156113dc5780601f106113b3576101008083540402835291602001916113dc565b820191905f5260205f20905b8154815290600101906020018083116113bf57829003601f168201915b505050505081526020016004820180546113f5906139e6565b80601f0160208091040260200160405190810160405280929190818152602001828054611421906139e6565b801561146c5780601f106114435761010080835404028352916020019161146c565b820191905f5260205f20905b81548152906001019060200180831161144f57829003601f168201915b50505050508152602001600582018054611485906139e6565b80601f01602080910402602001604051908101604052809291908181526020018280546114b1906139e6565b80156114fc5780601f106114d3576101008083540402835291602001916114fc565b820191905f5260205f20905b8154815290600101906020018083116114df57829003601f168201915b505050918352505060068201546020820152600782015460408201526008820154606082015260098201546080820152600a82015460a09091019060ff16600281111561154b5761154b61336d565b600281111561155c5761155c61336d565b905250612b4d565b600a820154839160ff909116906115a9576040517f94183ad60000000000000000000000000000000000000000000000000000000081526004016107aa929190613a4c565b503390508481158015906115df57505f8181526008602052604090206001600160a01b03831690600101546001600160a01b0316145b8183909161162b576040517f0d85eb4a00000000000000000000000000000000000000000000000000000000815260048101929092526001600160a01b031660248201526044016107aa565b50505f86815260086020526040902061164390612b6d565b505050505050565b5f828152600160205260408120610da99083612bb1565b5f8161166d81610aea565b81906116a8576040517fbb7040000000000000000000000000000000000000000000000000000000000081526004016107aa91815260200190565b505f838152600b602052604090206001906004015460ff1660028111156116d1576116d161336d565b149392505050565b5f81815260016020526040902060609061073590612b41565b5f8181526008602052604090205481901515819061173f576040517f6346fc320000000000000000000000000000000000000000000000000000000081526004016107aa91815260200190565b505f8281526008602052604081208391906040805161018081018252825481526001808401546001600160a01b0390811660208401526002850154908116938301939093529293506117bf9290918491606084019174010000000000000000000000000000000000000000900460ff16908111156113405761134061336d565b600a820154839160ff90911690611804576040517f94183ad60000000000000000000000000000000000000000000000000000000081526004016107aa929190613a4c565b5033905084811580159061183a57505f8181526008602052604090206001600160a01b03831690600101546001600160a01b0316145b81839091611886576040517f0d85eb4a00000000000000000000000000000000000000000000000000000000815260048101929092526001600160a01b031660248201526044016107aa565b50505f86815260086020526040902061164390612bbc565b5f816118a981610aea565b81906118e4576040517fbb7040000000000000000000000000000000000000000000000000000000000081526004016107aa91815260200190565b505f838152600b60205260409020600481015460019060ff16600281111561190e5761190e61336d565b14801561192557506004810154610100900460ff16155b949350505050565b6001600160a01b0381165f9081527f3c8d2f8a97e1ce48364c2d1655f8faa6e567a5481d337426b188783905b3b3e1602052604081205460ff16610735565b6006546040517f8c0f9aac0000000000000000000000000000000000000000000000000000000081523360048201526001600160a01b0390911690638c0f9aac90602401602060405180830381865afa1580156119cb573d5f5f3e3d5ffd5b505050506040513d601f19601f820116820180604052508101906119ef9190613a31565b3390611a33576040517f1e1c2ff70000000000000000000000000000000000000000000000000000000081526001600160a01b0390911660048201526024016107aa565b505f81608001515111611aa2576040517f56887c5700000000000000000000000000000000000000000000000000000000815260206004820152601b60248201527f4368616c6c656e6765207469746c65206973207265717569726564000000000060448201526064016107aa565b5f8160a001515111611b36576040517f56887c5700000000000000000000000000000000000000000000000000000000815260206004820152602160248201527f4368616c6c656e6765206465736372697074696f6e206973207265717569726560448201527f640000000000000000000000000000000000000000000000000000000000000060648201526084016107aa565b5f8160c001515111611bca576040517f56887c5700000000000000000000000000000000000000000000000000000000815260206004820152603160248201527f4368616c6c656e676520746172676574202870726f64756374206f722073657260448201527f766963652920697320726571756972656400000000000000000000000000000060648201526084016107aa565b5f81610140015111611c5e576040517f56887c5700000000000000000000000000000000000000000000000000000000815260206004820152602c60248201527f4368616c6c656e6765206d61782077696e6e657273206d75737420626520677260448201527f6561746572207468616e2030000000000000000000000000000000000000000060648201526084016107aa565b6004548161010001511015611cf4576040517f56887c57000000000000000000000000000000000000000000000000000000008152602060048201526024808201527f4368616c6c656e6765206475726174696f6e206c657373207468616e206d696e60448201527f696d756d0000000000000000000000000000000000000000000000000000000060648201526084016107aa565b6005548161010001511115611d8b576040517f56887c5700000000000000000000000000000000000000000000000000000000815260206004820152602760248201527f4368616c6c656e6765206475726174696f6e2067726561746572207468616e2060448201527f6d6178696d756d0000000000000000000000000000000000000000000000000060648201526084016107aa565b60028054808352905f611d9d83613a96565b90915550503360208201525f610160820181905250600160e08201526006546040517fcc1b7bd60000000000000000000000000000000000000000000000000000000081523360048201525f916001600160a01b03169063cc1b7bd6906024015f60405180830381865afa158015611e17573d5f5f3e3d5ffd5b505050506040513d5f823e601f3d908101601f19168201604052611e3e9190810190613b1a565b6040808201516001600160a01b0316908401528251909150611e639060089084612bfb565b508151335f908152600a60205260409020611e7d91612d89565b5081606001516001811115611e9457611e9461336d565b82516040513391907f693c5da1d1dae764985d5187723d0c86917976cab2d1808714c1644a559a343690611ec9908790613414565b60405180910390a45050565b5f81815260086020526040902054606090829015158190611f25576040517f6346fc320000000000000000000000000000000000000000000000000000000081526004016107aa91815260200190565b505f838152600d60205260409020610da990612b41565b335f8181527fad3228b676f7d3cd4284a5443f17f1962b36e491b30a40b2405849e597ba5fb5602052604090205460ff16611faf576040517fbc9a28d40000000000000000000000000000000000000000000000000000000081526001600160a01b0390911660048201526024016107aa565b50610e957ff2cc4b594397b9e9b97898bf3a692fa7ef7c9aaa52789fa8a78f56e99227503c82612ae3565b335f8181527fad3228b676f7d3cd4284a5443f17f1962b36e491b30a40b2405849e597ba5fb5602052604090205460ff1661204d576040517fbc9a28d40000000000000000000000000000000000000000000000000000000081526001600160a01b0390911660048201526024016107aa565b50610e957ff2cc4b594397b9e9b97898bf3a692fa7ef7c9aaa52789fa8a78f56e99227503c82612b16565b6001600160a01b0381165f9081527fad3228b676f7d3cd4284a5443f17f1962b36e491b30a40b2405849e597ba5fb5602052604081205460ff16610735565b5f81815260016020526040812061073590612d94565b5f828152602081905260409020600101546120e781612ad6565b610c448383612b16565b335f8181527fad3228b676f7d3cd4284a5443f17f1962b36e491b30a40b2405849e597ba5fb5602052604090205460ff16612164576040517fbc9a28d40000000000000000000000000000000000000000000000000000000081526001600160a01b0390911660048201526024016107aa565b50610e955f82612ae3565b6006546040517f4209fff10000000000000000000000000000000000000000000000000000000081523360048201819052916001600160a01b031690634209fff190602401602060405180830381865afa1580156121cf573d5f5f3e3d5ffd5b505050506040513d601f19601f820116820180604052508101906121f39190613a31565b8190612237576040517fba1b16ec0000000000000000000000000000000000000000000000000000000081526001600160a01b0390911660048201526024016107aa565b506040828101515f8181526008602052919091205415158190612289576040517f6346fc320000000000000000000000000000000000000000000000000000000081526004016107aa91815260200190565b506040838101515f81815260086020529190912061252d906040805161018081018252825481526001808401546001600160a01b03908116602084015260028501549081169383019390935290929160608401917401000000000000000000000000000000000000000090910460ff16908111156123095761230961336d565b600181111561231a5761231a61336d565b815260200160038201805461232e906139e6565b80601f016020809104026020016040519081016040528092919081815260200182805461235a906139e6565b80156123a55780601f1061237c576101008083540402835291602001916123a5565b820191905f5260205f20905b81548152906001019060200180831161238857829003601f168201915b505050505081526020016004820180546123be906139e6565b80601f01602080910402602001604051908101604052809291908181526020018280546123ea906139e6565b80156124355780601f1061240c57610100808354040283529160200191612435565b820191905f5260205f20905b81548152906001019060200180831161241857829003601f168201915b5050505050815260200160058201805461244e906139e6565b80601f016020809104026020016040519081016040528092919081815260200182805461247a906139e6565b80156124c55780601f1061249c576101008083540402835291602001916124c5565b820191905f5260205f20905b8154815290600101906020018083116124a857829003601f168201915b505050918352505060068201546020820152600782015460408201526008820154606082015260098201546080820152600a82015460a09091019060ff1660028111156125145761251461336d565b60028111156125255761252561336d565b905250612d9d565b8190612568576040517f26e754500000000000000000000000000000000000000000000000000000000081526004016107aa91815260200190565b506040848101515f8181526008602090815283822060090154600e909152929020909190819061259790612d94565b10828290916125db576040517f9ff6f331000000000000000000000000000000000000000000000000000000008152600481019290925260248201526044016107aa565b5050604080870151335f818152600f602052929092209091906125fe9083612ddd565b158282909161264b576040517f8b3aac7400000000000000000000000000000000000000000000000000000000815260048101929092526001600160a01b031660248201526044016107aa565b50505f886060015151116126e1576040517f9e732d6500000000000000000000000000000000000000000000000000000000815260206004820152602560248201527f4368616c6c656e676520636f6d706c6574696f6e20646174612069732072657160448201527f756972656400000000000000000000000000000000000000000000000000000060648201526084016107aa565b60038054808a52905f6126f383613a96565b90915550503360208901525f6080890181905260a0890152875161271a90600b908a612df4565b5087516040808a01515f908152600d6020522061273691612d89565b508751335f908152600f6020526040902061275091612d89565b50336001600160a01b03168860400151895f01517f6b56cf3abc06dd64c98cb2a604541d5745fd1aeb8f338f579b0a673eff09c9648b604051612793919061356f565b60405180910390a45050505050505050565b6001600160a01b0381165f9081527f8998ba14d5c3c37a83a6ced4904ad6eb0639c81f6e2dad230432850fb460bb1b602052604081205460ff16610735565b335f8181527f3c8d2f8a97e1ce48364c2d1655f8faa6e567a5481d337426b188783905b3b3e1602052604090205460ff16612857576040517ff0a3894b0000000000000000000000000000000000000000000000000000000081526001600160a01b0390911660048201526024016107aa565b508161286281610aea565b819061289d576040517fbb7040000000000000000000000000000000000000000000000000000000000081526004016107aa91815260200190565b505f838152600b60205260408120600481015485929060ff1660028111156128c7576128c761336d565b148290612903576040517f763470920000000000000000000000000000000000000000000000000000000081526004016107aa91815260200190565b505f858152600b60209081526040808320600281015484526008835281842060090154600e909352922061293690612d94565b1061298c5760028101545f818152600860205260409020600901546040517f9ff6f331000000000000000000000000000000000000000000000000000000008152600481019290925260248201526044016107aa565b8461299857600261299b565b60015b60048201805460ff191660018360028111156129b9576129b961336d565b021790555042600582015584156129e85760028101545f908152600e602052604090206129e69087612d89565b505b600181015460028201546040516001600160a01b039092169188907fbd49070132aba4e206f69fd2d2baf32f7652482aabd7fe9ce1231a01dc49edfb90612a30908690613c97565b60405180910390a4505050505050565b5f7fffffffff0000000000000000000000000000000000000000000000000000000082167f7965db0b00000000000000000000000000000000000000000000000000000000148061073557507f01ffc9a7000000000000000000000000000000000000000000000000000000007fffffffff00000000000000000000000000000000000000000000000000000000831614610735565b612ae08133612f0b565b50565b5f5f612aef8484612f76565b90508015610da9575f848152600160205260409020612b0e908461301d565b509392505050565b5f5f612b228484613031565b90508015610da9575f848152600160205260409020612b0e90846130b2565b60605f610da9836130c6565b5f808261016001516002811115612b6657612b6661336d565b1492915050565b600a8101805460ff19166001179055426008820181905581546040517ff2507d65940b1fddf05cd3a4e95a2b76d36505441a95ff1574855c9ef4e27acc905f90a350565b5f610da9838361311f565b600a8101805460ff1916600217905580546040514291907ff197d6126f5c5c63c1caf0b118a033aea0e5a2da680ef24aed8189d44a3fc46d905f90a350565b5f8281526020849052604081205415612c12575060015b5f83815260208581526040918290208451815590840151600180830180546001600160a01b039384167fffffffffffffffffffffffff000000000000000000000000000000000000000091821617909155938601516002840180549190931694811685178355606087015187959093927fffffffffffffffffffffff000000000000000000000000000000000000000000909216179074010000000000000000000000000000000000000000908490811115612cd057612cd061336d565b021790555060808201516003820190612ce99082613d72565b5060a08201516004820190612cfe9082613d72565b5060c08201516005820190612d139082613d72565b5060e08201516006820155610100820151600782015561012082015160088201556101408201516009820155610160820151600a8201805460ff19166001836002811115612d6357612d6361336d565b021790555050506001938401805494850181555f90815260209020909301919091555090565b5f610da98383613145565b5f610735825490565b5f60018261016001516002811115612db757612db761336d565b148015610735575042826101000151836101200151612dd69190613e6b565b1192915050565b5f8181526001830160205260408120541515610da9565b5f8281526020849052604081205415612e0b575060015b5f838152602085815260409182902084518155908401516001820180547fffffffffffffffffffffffff0000000000000000000000000000000000000000166001600160a01b0390921691909117905590830151600282015560608301518391906003820190612e7b9082613d72565b50608082015160048201805460ff19166001836002811115612e9f57612e9f61336d565b021790555060a0820151600482018054911515610100027fffffffffffffffffffffffffffffffffffffffffffffffffffffffffffff00ff90921691909117905560c0909101516005909101556001938401805494850181555f90815260209020909301919091555090565b5f828152602081815260408083206001600160a01b038516845290915290205460ff16610e95576040517fe2517d3f0000000000000000000000000000000000000000000000000000000081526001600160a01b0382166004820152602481018390526044016107aa565b5f828152602081815260408083206001600160a01b038516845290915281205460ff16613016575f838152602081815260408083206001600160a01b03861684529091529020805460ff19166001179055612fce3390565b6001600160a01b0316826001600160a01b0316847f2f8788117e7eff1d82e926ec794901d17c78024a50270940304540a733656f0d60405160405180910390a4506001610735565b505f610735565b5f610da9836001600160a01b038416613145565b5f828152602081815260408083206001600160a01b038516845290915281205460ff1615613016575f838152602081815260408083206001600160a01b0386168085529252808320805460ff1916905551339286917ff6391f5c32d9c69d2a47ea670b442974b53935d1edc7fd64eb21e047a839171b9190a4506001610735565b5f610da9836001600160a01b03841661318a565b6060815f0180548060200260200160405190810160405280929190818152602001828054801561311357602002820191905f5260205f20905b8154815260200190600101908083116130ff575b50505050509050919050565b5f825f01828154811061313457613134613e7e565b905f5260205f200154905092915050565b5f81815260018301602052604081205461301657508154600181810184555f848152602080822090930184905584548482528286019093526040902091909155610735565b5f8181526001830160205260408120548015613264575f6131ac600183613eab565b85549091505f906131bf90600190613eab565b905080821461321e575f865f0182815481106131dd576131dd613e7e565b905f5260205f200154905080875f0184815481106131fd576131fd613e7e565b5f918252602080832090910192909255918252600188019052604090208390555b855486908061322f5761322f613ebe565b600190038181905f5260205f20015f90559055856001015f8681526020019081526020015f205f905560019350505050610735565b5f915050610735565b60408051610180810182525f8082526020820181905291810182905290606082019081526020016060815260200160608152602001606081526020015f81526020015f81526020015f81526020015f81526020015f60028111156132d3576132d361336d565b905290565b5f602082840312156132e8575f5ffd5b81357fffffffff0000000000000000000000000000000000000000000000000000000081168114610da9575f5ffd5b6001600160a01b0381168114612ae0575f5ffd5b803561333681613317565b919050565b5f6020828403121561334b575f5ffd5b8135610da981613317565b5f60208284031215613366575f5ffd5b5035919050565b7f4e487b71000000000000000000000000000000000000000000000000000000005f52602160045260245ffd5b600281106133aa576133aa61336d565b9052565b5f5b838110156133c85781810151838201526020016133b0565b50505f910152565b5f81518084526133e78160208601602086016133ae565b601f01601f19169290920160200192915050565b60038110612ae057612ae061336d565b6133aa816133fb565b60208152815160208201525f602083015161343a60408401826001600160a01b03169052565b5060408301516001600160a01b0381166060840152506060830151613462608084018261339a565b50608083015161018060a084015261347e6101a08401826133d0565b905060a0840151601f198483030160c085015261349b82826133d0565b91505060c0840151601f198483030160e08501526134b982826133d0565b91505060e0840151610100840152610100840151610120840152610120840151610140840152610140840151610160840152610160840151612b0e61018085018261340b565b5f5f60408385031215613510575f5ffd5b82359150602083013561352281613317565b809150509250929050565b602080825282518282018190525f918401906040840190835b81811015613564578351835260209384019390920191600101613546565b509095945050505050565b60208152815160208201526001600160a01b036020830151166040820152604082015160608201525f606083015160e060808401526135b26101008401826133d0565b905060808401516135c2816133fb565b8060a08501525060a0840151151560c084015260c084015160e08401528091505092915050565b5f5f604083850312156135fa575f5ffd5b50508035926020909101359150565b602080825282518282018190525f918401906040840190835b818110156135645783516001600160a01b0316835260209384019390920191600101613622565b7f4e487b71000000000000000000000000000000000000000000000000000000005f52604160045260245ffd5b604051610180810167ffffffffffffffff8111828210171561369a5761369a613649565b60405290565b60405160e0810167ffffffffffffffff8111828210171561369a5761369a613649565b60405160a0810167ffffffffffffffff8111828210171561369a5761369a613649565b604051601f8201601f1916810167ffffffffffffffff8111828210171561370f5761370f613649565b604052919050565b803560028110613336575f5ffd5b5f67ffffffffffffffff82111561373e5761373e613649565b50601f01601f191660200190565b5f82601f83011261375b575f5ffd5b8135602083015f61377361376e84613725565b6136e6565b9050828152858383011115613786575f5ffd5b828260208301375f92810160200192909252509392505050565b803560038110613336575f5ffd5b5f602082840312156137be575f5ffd5b813567ffffffffffffffff8111156137d4575f5ffd5b820161018081850312156137e6575f5ffd5b6137ee613676565b813581526137fe6020830161332b565b602082015261380f6040830161332b565b604082015261382060608301613717565b6060820152608082013567ffffffffffffffff81111561383e575f5ffd5b61384a8682850161374c565b60808301525060a082013567ffffffffffffffff811115613869575f5ffd5b6138758682850161374c565b60a08301525060c082013567ffffffffffffffff811115613894575f5ffd5b6138a08682850161374c565b60c08301525060e082810135908201526101008083013590820152610120808301359082015261014080830135908201526138de61016083016137a0565b610160820152949350505050565b8015158114612ae0575f5ffd5b8035613336816138ec565b5f60208284031215613914575f5ffd5b813567ffffffffffffffff81111561392a575f5ffd5b820160e0818503121561393b575f5ffd5b6139436136a0565b813581526139536020830161332b565b602082015260408281013590820152606082013567ffffffffffffffff81111561397b575f5ffd5b6139878682850161374c565b606083015250613999608083016137a0565b60808201526139aa60a083016138f9565b60a082015260c091820135918101919091529392505050565b5f5f604083850312156139d4575f5ffd5b823591506020830135613522816138ec565b600181811c908216806139fa57607f821691505b602082108103610ae4577f4e487b71000000000000000000000000000000000000000000000000000000005f52602260045260245ffd5b5f60208284031215613a41575f5ffd5b8151610da9816138ec565b82815260408101613a5c836133fb565b8260208301529392505050565b7f4e487b71000000000000000000000000000000000000000000000000000000005f52601160045260245ffd5b5f7fffffffffffffffffffffffffffffffffffffffffffffffffffffffffffffffff8203613ac657613ac6613a69565b5060010190565b5f82601f830112613adc575f5ffd5b8151613aea61376e82613725565b818152846020838601011115613afe575f5ffd5b6119258260208301602087016133ae565b805161333681613317565b5f60208284031215613b2a575f5ffd5b815167ffffffffffffffff811115613b40575f5ffd5b820160a08185031215613b51575f5ffd5b613b596136c3565b815167ffffffffffffffff811115613b6f575f5ffd5b613b7b86828501613acd565b825250602082015167ffffffffffffffff811115613b97575f5ffd5b613ba386828501613acd565b602083015250613bb560408301613b0f565b6040820152606082015167ffffffffffffffff811115613bd3575f5ffd5b613bdf86828501613acd565b606083015250608082015167ffffffffffffffff811115613bfe575f5ffd5b613c0a86828501613acd565b608083015250949350505050565b5f8154613c24816139e6565b808552600182168015613c3e5760018114613c5a57613c8e565b60ff1983166020870152602082151560051b8701019350613c8e565b845f5260205f205f5b83811015613c855781546020828a010152600182019150602081019050613c63565b87016020019450505b50505092915050565b60208152815460208201525f6001600160a01b03600184015416613cc660408401826001600160a01b03169052565b506002830154606083015260e06080830152613ce9610100830160038501613c18565b6004840154613cfe60a0850160ff831661340b565b613d1260c0850160ff8360081c1615159052565b50600584015460e08401528091505092915050565b601f821115610c9657805f5260205f20601f840160051c81016020851015613d4c5750805b601f840160051c820191505b81811015613d6b575f8155600101613d58565b5050505050565b815167ffffffffffffffff811115613d8c57613d8c613649565b613da081613d9a84546139e6565b84613d27565b6020601f821160018114613df1575f8315613dbb5750848201515b7fffffffffffffffffffffffffffffffffffffffffffffffffffffffffffffffff600385901b1c1916600184901b178455613d6b565b5f84815260208120601f198516915b82811015613e205787850151825560209485019460019092019101613e00565b5084821015613e5c57868401517fffffffffffffffffffffffffffffffffffffffffffffffffffffffffffffffff600387901b60f8161c191681555b50505050600190811b01905550565b8082018082111561073557610735613a69565b7f4e487b71000000000000000000000000000000000000000000000000000000005f52603260045260245ffd5b8181038181111561073557610735613a69565b7f4e487b71000000000000000000000000000000000000000000000000000000005f52603160045260245ffdfea164736f6c634300081c000a","linkReferences":{}},"methodIdentifiers":{"CHALLENGE_COMPLETION_VALIDATOR_ROLE()":"cf7743ae","CHALLENGE_REWARD_STRATEGY_ROLE()":"a44f7962","DEFAULT_ADMIN_ROLE()":"a217fddf","cancelChallenge(uint256)":"a41483e3","challengeCompletionExists(uint256)":"1281f170","challengeCompletionIdCounter()":"b51529dc","challengeExists(uint256)":"46554719","challengeIdCounter()":"4adf3051","challengeRewardStrategy()":"6686642f","evaluateChallengeCompletion(uint256,bool)":"ff8911c3","getApprovedChallengeCompletionsByChallenge(uint256)":"5658d0ca","getChallenge(uint256)":"1bdd4b74","getChallengeByCompletion(uint256)":"0bd2e885","getChallengeCompletion(uint256)":"5bbf4611","getChallengeCompletionsByChallenge(uint256)":"bb8124e6","getRoleAdmin(bytes32)":"248a9ca3","getRoleMember(bytes32,uint256)":"9010d07c","getRoleMemberCount(bytes32)":"ca15c873","getRoleMembers(bytes32)":"a3246ad3","getUserChallengeCompletions(address)":"51ba96ad","grantChallengeCompletionValidatorRole(address)":"bcb8e0cf","grantChallengeRewardStrategyRole(address)":"5cac28a5","grantDefaultAdminRole(address)":"e5350f91","grantRole(bytes32,address)":"2f2ff15d","hasAdminRole(address)":"c395fcb3","hasChallengeCompletionValidatorRole(address)":"b8ef5334","hasChallengeRewardStrategyRole(address)":"f136a4dc","hasPendingReward(uint256)":"a778b820","hasRole(bytes32,address)":"91d14854","isChallengeCompletionApproved(uint256)":"92f3809f","maximumChallengeDuration()":"c29ce65a","minimumChallengeDuration()":"ab854a39","renounceRole(bytes32,address)":"36568abe","revokeChallengeCompletionValidatorRole(address)":"bdea34ad","revokeChallengeRewardStrategyRole(address)":"6946c18b","revokeDefaultAdminRole(address)":"5773172d","revokeRole(bytes32,address)":"d547741f","setChallengeRewardStrategy(address)":"0a61744e","setWellnessHome(address)":"2165a2f3","startChallenge(uint256)":"6ad4e87a","submitChallenge((uint256,address,address,uint8,string,string,string,uint256,uint256,uint256,uint256,uint8))":"bac432bb","submitChallengeCompletion((uint256,address,uint256,bytes,uint8,bool,uint256))":"ed162c24","supportsInterface(bytes4)":"01ffc9a7","updateRewardStateAsClaimed(uint256)":"660de86c","wellnessHome()":"a95a0e26"},"id":20}