{"abi":[{"type":"constructor","inputs":[{"name":"owner","type":"address","internalType":"address"}],"stateMutability":"nonpayable"},{"type":"function","name":"challengeManager","inputs":[],"outputs":[{"name":"","type":"address","internalType":"contract IChallengeManager"}],"stateMutability":"view"},{"type":"function","name":"evaluateChallengeCompletion","inputs":[{"name":"challengeCompletionId","type":"uint256","internalType":"uint256"},{"name":"approved","type":"bool","internalType":"bool"}],"outputs":[],"stateMutability":"nonpayable"},{"type":"function","name":"hasChallengeCompletionMetRequirements","inputs":[{"name":"challengeCompletionId","type":"uint256","internalType":"uint256"}],"outputs":[{"name":"","type":"bool","internalType":"bool"}],"stateMutability":"view"},{"type":"function","name":"owner","inputs":[],"outputs":[{"name":"","type":"address","internalType":"address"}],"stateMutability":"view"},{"type":"function","name":"renounceOwnership","inputs":[],"outputs":[],"stateMutability":"nonpayable"},{"type":"function","name":"setChallengeManager","inputs":[{"name":"challengeManager_","type":"address","internalType":"contract IChallengeManager"}],"outputs":[],"stateMutability":"nonpayable"},{"type":"function","name":"setWellnessHome","inputs":[{"name":"wellnessHome_","type":"address","internalType":"contract IWellnessHome"}],"outputs":[],"stateMutability":"nonpayable"},{"type":"function","name":"transferOwnership","inputs":[{"name":"newOwner","type":"address","internalType":"address"}],"outputs":[],"stateMutability":"nonpayable"},{"type":"function","name":"wellnessHome","inputs":[],"outputs":[{"name":"","type":"address","internalType":"contract IWellnessHome"}],"stateMutability":"view"},{"type":"event","name":"OwnershipTransferred","inputs":[{"name":"previousOwner","type":"address","indexed":true,"internalType":"address"},{"name":"newOwner","type":"address","indexed":true,"internalType":"address"}],"anonymous":false},{"type":"error","name":"InvalidChallengeSubmitter","inputs":[{"name":"challengeId","type":"uint256","internalType":"uint256"},{"name":"submitter","type":"address","internalType":"address"}]},{"type":"error","name":"NonExistingChallengeCompletion","inputs":[{"name":"challengeCompletionId","type":"uint256","internalType":"uint256"}]},{"type":"error","name":"OwnableInvalidOwner","inputs":[{"name":"owner","type":"address","internalType":"address"}]},{"type":"error","name":"OwnableUnauthorizedAccount","inputs":[{"name":"account","type":"address","internalType":"address"}]}],"bytecode":{"object":"0x6080604052348015600e575f5ffd5b50604051610cba380380610cba833981016040819052602b9160b4565b806001600160a01b038116605857604051631e4fbdf760e01b81525f600482015260240160405180910390fd5b605f816065565b505060df565b5f80546001600160a01b038381166001600160a01b0319831681178455604051919092169283917f8be0079c531659141344cd1fd0a4f28419497f9722a3daafe3b4186f6b6457e09190a35050565b5f6020828403121560c3575f5ffd5b81516001600160a01b038116811460d8575f5ffd5b9392505050565b610bce806100ec5f395ff3fe608060405234801561000f575f5ffd5b506004361061009f575f3560e01c80638da5cb5b11610072578063b7626e7311610058578063b7626e731461016a578063f2fde38b1461017d578063ff8911c314610190575f5ffd5b80638da5cb5b1461012d578063a95a0e261461014a575f5ffd5b8063023a96fe146100a35780632165a2f3146100ed5780632562971814610102578063715018a614610125575b5f5ffd5b6002546100c39073ffffffffffffffffffffffffffffffffffffffff1681565b60405173ffffffffffffffffffffffffffffffffffffffff90911681526020015b60405180910390f35b6101006100fb3660046107c2565b6101a3565b005b6101156101103660046107e4565b6101f2565b60405190151581526020016100e4565b610100610289565b5f5473ffffffffffffffffffffffffffffffffffffffff166100c3565b6001546100c39073ffffffffffffffffffffffffffffffffffffffff1681565b6101006101783660046107c2565b61029c565b61010061018b3660046107c2565b6102eb565b61010061019e366004610808565b610353565b6101ab6106db565b600180547fffffffffffffffffffffffff00000000000000000000000000000000000000001673ffffffffffffffffffffffffffffffffffffffff92909216919091179055565b6002546040517f92f3809f000000000000000000000000000000000000000000000000000000008152600481018390525f9173ffffffffffffffffffffffffffffffffffffffff16906392f3809f90602401602060405180830381865afa15801561025f573d5f5f3e3d5ffd5b505050506040513d601f19601f820116820180604052508101906102839190610846565b92915050565b6102916106db565b61029a5f61072d565b565b6102a46106db565b600280547fffffffffffffffffffffffff00000000000000000000000000000000000000001673ffffffffffffffffffffffffffffffffffffffff92909216919091179055565b6102f36106db565b73ffffffffffffffffffffffffffffffffffffffff8116610347576040517f1e4fbdf70000000000000000000000000000000000000000000000000000000081525f60048201526024015b60405180910390fd5b6103508161072d565b50565b6002546040517f1281f17000000000000000000000000000000000000000000000000000000000815260048101849052839173ffffffffffffffffffffffffffffffffffffffff1690631281f17090602401602060405180830381865afa1580156103c0573d5f5f3e3d5ffd5b505050506040513d601f19601f820116820180604052508101906103e49190610846565b819061041f576040517fbb70400000000000000000000000000000000000000000000000000000000000815260040161033e91815260200190565b506002546040517f5bbf461100000000000000000000000000000000000000000000000000000000815260048101859052849133915f9173ffffffffffffffffffffffffffffffffffffffff1690635bbf4611906024015f60405180830381865afa158015610490573d5f5f3e3d5ffd5b505050506040513d5f823e601f3d9081017fffffffffffffffffffffffffffffffffffffffffffffffffffffffffffffffe01682016040526104d591908101906109b6565b60025460408083015190517f1bdd4b740000000000000000000000000000000000000000000000000000000081529293505f9273ffffffffffffffffffffffffffffffffffffffff90921691631bdd4b74916105379160040190815260200190565b5f60405180830381865afa158015610551573d5f5f3e3d5ffd5b505050506040513d5f823e601f3d9081017fffffffffffffffffffffffffffffffffffffffffffffffffffffffffffffffe01682016040526105969190810190610a83565b905073ffffffffffffffffffffffffffffffffffffffff8316158015906105ec5750806020015173ffffffffffffffffffffffffffffffffffffffff168373ffffffffffffffffffffffffffffffffffffffff16145b8260400151339091610649576040517f0d85eb4a000000000000000000000000000000000000000000000000000000008152600481019290925273ffffffffffffffffffffffffffffffffffffffff16602482015260440161033e565b50506002546040517fff8911c300000000000000000000000000000000000000000000000000000000815260048101899052871515602482015273ffffffffffffffffffffffffffffffffffffffff9091169063ff8911c3906044015f604051808303815f87803b1580156106bc575f5ffd5b505af11580156106ce573d5f5f3e3d5ffd5b5050505050505050505050565b5f5473ffffffffffffffffffffffffffffffffffffffff16331461029a576040517f118cdaa700000000000000000000000000000000000000000000000000000000815233600482015260240161033e565b5f805473ffffffffffffffffffffffffffffffffffffffff8381167fffffffffffffffffffffffff0000000000000000000000000000000000000000831681178455604051919092169283917f8be0079c531659141344cd1fd0a4f28419497f9722a3daafe3b4186f6b6457e09190a35050565b73ffffffffffffffffffffffffffffffffffffffff81168114610350575f5ffd5b5f602082840312156107d2575f5ffd5b81356107dd816107a1565b9392505050565b5f602082840312156107f4575f5ffd5b5035919050565b8015158114610350575f5ffd5b5f5f60408385031215610819575f5ffd5b82359150602083013561082b816107fb565b809150509250929050565b8051610841816107fb565b919050565b5f60208284031215610856575f5ffd5b81516107dd816107fb565b7f4e487b71000000000000000000000000000000000000000000000000000000005f52604160045260245ffd5b60405160e0810167ffffffffffffffff811182821017156108b1576108b1610861565b60405290565b604051610180810167ffffffffffffffff811182821017156108b1576108b1610861565b8051610841816107a1565b5f82601f8301126108f5575f5ffd5b8151602083015f5f67ffffffffffffffff84111561091557610915610861565b506040517fffffffffffffffffffffffffffffffffffffffffffffffffffffffffffffffe0601f85018116603f0116810181811067ffffffffffffffff8211171561096257610962610861565b604052838152905080828401871015610979575f5ffd5b6020810191505f5b84811015610999578381015183820152602001610981565b505f9190930152509392505050565b805160038110610841575f5ffd5b5f602082840312156109c6575f5ffd5b815167ffffffffffffffff8111156109dc575f5ffd5b820160e081850312156109ed575f5ffd5b6109f561088e565b81518152610a05602083016108db565b602082015260408281015190820152606082015167ffffffffffffffff811115610a2d575f5ffd5b610a39868285016108e6565b606083015250610a4b608083016109a8565b6080820152610a5c60a08301610836565b60a082015260c091820151918101919091529392505050565b805160028110610841575f5ffd5b5f60208284031215610a93575f5ffd5b815167ffffffffffffffff811115610aa9575f5ffd5b82016101808185031215610abb575f5ffd5b610ac36108b7565b81518152610ad3602083016108db565b6020820152610ae4604083016108db565b6040820152610af560608301610a75565b6060820152608082015167ffffffffffffffff811115610b13575f5ffd5b610b1f868285016108e6565b60808301525060a082015167ffffffffffffffff811115610b3e575f5ffd5b610b4a868285016108e6565b60a08301525060c082015167ffffffffffffffff811115610b69575f5ffd5b610b75868285016108e6565b60c08301525060e08281015190820152610100808301519082015261012080830151908201526101408083015190820152610bb361016083016109a8565b61016082015294935050505056fea164736f6c634300081c000a","linkReferences":{}},"methodIdentifiers":{"challengeManager()":"023a96fe","evaluateChallengeCompletion(uint256,bool)":"ff8911c3","hasChallengeCompletionMetRequirements(uint256)":"25629718","owner()":"8da5cb5b","renounceOwnership()":"715018a6","setChallengeManager(address)":"b7626e73","setWellnessHome(address)":"2165a2f3","transferOwnership(address)":"f2fde38b","wellnessHome()":"a95a0e26"},"id":32}